{
  "_format": "hh-sol-artifact-1",
  "contractName": "EasyBet",
  "sourceName": "contracts/EasyBet.sol",
  "abi": [
    {
      "inputs": [
        {
          "internalType": "address",
          "name": "sender",
          "type": "address"
        },
        {
          "internalType": "uint256",
          "name": "tokenId",
          "type": "uint256"
        },
        {
          "internalType": "address",
          "name": "owner",
          "type": "address"
        }
      ],
      "name": "ERC721IncorrectOwner",
      "type": "error"
    },
    {
      "inputs": [
        {
          "internalType": "address",
          "name": "operator",
          "type": "address"
        },
        {
          "internalType": "uint256",
          "name": "tokenId",
          "type": "uint256"
        }
      ],
      "name": "ERC721InsufficientApproval",
      "type": "error"
    },
    {
      "inputs": [
        {
          "internalType": "address",
          "name": "approver",
          "type": "address"
        }
      ],
      "name": "ERC721InvalidApprover",
      "type": "error"
    },
    {
      "inputs": [
        {
          "internalType": "address",
          "name": "operator",
          "type": "address"
        }
      ],
      "name": "ERC721InvalidOperator",
      "type": "error"
    },
    {
      "inputs": [
        {
          "internalType": "address",
          "name": "owner",
          "type": "address"
        }
      ],
      "name": "ERC721InvalidOwner",
      "type": "error"
    },
    {
      "inputs": [
        {
          "internalType": "address",
          "name": "receiver",
          "type": "address"
        }
      ],
      "name": "ERC721InvalidReceiver",
      "type": "error"
    },
    {
      "inputs": [
        {
          "internalType": "address",
          "name": "sender",
          "type": "address"
        }
      ],
      "name": "ERC721InvalidSender",
      "type": "error"
    },
    {
      "inputs": [
        {
          "internalType": "uint256",
          "name": "tokenId",
          "type": "uint256"
        }
      ],
      "name": "ERC721NonexistentToken",
      "type": "error"
    },
    {
      "anonymous": false,
      "inputs": [
        {
          "indexed": true,
          "internalType": "address",
          "name": "owner",
          "type": "address"
        },
        {
          "indexed": true,
          "internalType": "address",
          "name": "approved",
          "type": "address"
        },
        {
          "indexed": true,
          "internalType": "uint256",
          "name": "tokenId",
          "type": "uint256"
        }
      ],
      "name": "Approval",
      "type": "event"
    },
    {
      "anonymous": false,
      "inputs": [
        {
          "indexed": true,
          "internalType": "address",
          "name": "owner",
          "type": "address"
        },
        {
          "indexed": true,
          "internalType": "address",
          "name": "operator",
          "type": "address"
        },
        {
          "indexed": false,
          "internalType": "bool",
          "name": "approved",
          "type": "bool"
        }
      ],
      "name": "ApprovalForAll",
      "type": "event"
    },
    {
      "anonymous": false,
      "inputs": [
        {
          "indexed": false,
          "internalType": "uint256",
          "name": "betId",
          "type": "uint256"
        },
        {
          "indexed": false,
          "internalType": "uint256",
          "name": "price",
          "type": "uint256"
        },
        {
          "indexed": false,
          "internalType": "address",
          "name": "owner",
          "type": "address"
        }
      ],
      "name": "BetListed",
      "type": "event"
    },
    {
      "anonymous": false,
      "inputs": [
        {
          "indexed": false,
          "internalType": "uint256",
          "name": "betId",
          "type": "uint256"
        },
        {
          "indexed": false,
          "internalType": "address",
          "name": "owner",
          "type": "address"
        }
      ],
      "name": "BetListingCancelled",
      "type": "event"
    },
    {
      "anonymous": false,
      "inputs": [
        {
          "indexed": false,
          "internalType": "uint256",
          "name": "betId",
          "type": "uint256"
        },
        {
          "indexed": false,
          "internalType": "uint256",
          "name": "price",
          "type": "uint256"
        },
        {
          "indexed": false,
          "internalType": "address",
          "name": "owner",
          "type": "address"
        }
      ],
      "name": "BetPlaced",
      "type": "event"
    },
    {
      "anonymous": false,
      "inputs": [
        {
          "indexed": false,
          "internalType": "uint256",
          "name": "betId",
          "type": "uint256"
        },
        {
          "indexed": false,
          "internalType": "uint256",
          "name": "price",
          "type": "uint256"
        },
        {
          "indexed": false,
          "internalType": "address",
          "name": "buyer",
          "type": "address"
        }
      ],
      "name": "BetSold",
      "type": "event"
    },
    {
      "anonymous": false,
      "inputs": [
        {
          "indexed": false,
          "internalType": "uint256",
          "name": "gambleId",
          "type": "uint256"
        },
        {
          "indexed": false,
          "internalType": "string[]",
          "name": "choices",
          "type": "string[]"
        },
        {
          "indexed": false,
          "internalType": "address",
          "name": "owner",
          "type": "address"
        }
      ],
      "name": "GambleCreated",
      "type": "event"
    },
    {
      "anonymous": false,
      "inputs": [
        {
          "indexed": false,
          "internalType": "uint256",
          "name": "gambleId",
          "type": "uint256"
        }
      ],
      "name": "GambleFinished",
      "type": "event"
    },
    {
      "anonymous": false,
      "inputs": [
        {
          "indexed": false,
          "internalType": "uint256",
          "name": "gambleId",
          "type": "uint256"
        },
        {
          "indexed": false,
          "internalType": "uint256",
          "name": "winningChoice",
          "type": "uint256"
        }
      ],
      "name": "GambleResultDeclared",
      "type": "event"
    },
    {
      "anonymous": false,
      "inputs": [
        {
          "indexed": false,
          "internalType": "uint256",
          "name": "betId",
          "type": "uint256"
        },
        {
          "indexed": false,
          "internalType": "uint256",
          "name": "prizeAmount",
          "type": "uint256"
        },
        {
          "indexed": false,
          "internalType": "address",
          "name": "claimer",
          "type": "address"
        }
      ],
      "name": "PrizeClaimed",
      "type": "event"
    },
    {
      "anonymous": false,
      "inputs": [
        {
          "indexed": true,
          "internalType": "address",
          "name": "from",
          "type": "address"
        },
        {
          "indexed": true,
          "internalType": "address",
          "name": "to",
          "type": "address"
        },
        {
          "indexed": true,
          "internalType": "uint256",
          "name": "tokenId",
          "type": "uint256"
        }
      ],
      "name": "Transfer",
      "type": "event"
    },
    {
      "inputs": [
        {
          "internalType": "address",
          "name": "to",
          "type": "address"
        },
        {
          "internalType": "uint256",
          "name": "tokenId",
          "type": "uint256"
        }
      ],
      "name": "approve",
      "outputs": [],
      "stateMutability": "nonpayable",
      "type": "function"
    },
    {
      "inputs": [
        {
          "internalType": "address",
          "name": "owner",
          "type": "address"
        }
      ],
      "name": "balanceOf",
      "outputs": [
        {
          "internalType": "uint256",
          "name": "",
          "type": "uint256"
        }
      ],
      "stateMutability": "view",
      "type": "function"
    },
    {
      "inputs": [],
      "name": "betCount",
      "outputs": [
        {
          "internalType": "uint256",
          "name": "",
          "type": "uint256"
        }
      ],
      "stateMutability": "view",
      "type": "function"
    },
    {
      "inputs": [
        {
          "internalType": "uint256",
          "name": "",
          "type": "uint256"
        }
      ],
      "name": "betListings",
      "outputs": [
        {
          "internalType": "uint256",
          "name": "tokenId",
          "type": "uint256"
        },
        {
          "internalType": "uint256",
          "name": "listedTimestamp",
          "type": "uint256"
        },
        {
          "internalType": "uint256",
          "name": "price",
          "type": "uint256"
        },
        {
          "internalType": "address",
          "name": "owner",
          "type": "address"
        }
      ],
      "stateMutability": "view",
      "type": "function"
    },
    {
      "inputs": [
        {
          "internalType": "uint256",
          "name": "",
          "type": "uint256"
        }
      ],
      "name": "bets",
      "outputs": [
        {
          "internalType": "address",
          "name": "owner",
          "type": "address"
        },
        {
          "internalType": "uint256",
          "name": "listedTimestamp",
          "type": "uint256"
        },
        {
          "internalType": "uint256",
          "name": "gambleId",
          "type": "uint256"
        },
        {
          "internalType": "uint256",
          "name": "betAmount",
          "type": "uint256"
        },
        {
          "internalType": "uint256",
          "name": "betChoice",
          "type": "uint256"
        },
        {
          "internalType": "bool",
          "name": "isListed",
          "type": "bool"
        }
      ],
      "stateMutability": "view",
      "type": "function"
    },
    {
      "inputs": [
        {
          "internalType": "uint256",
          "name": "tokenId",
          "type": "uint256"
        }
      ],
      "name": "buyABet",
      "outputs": [],
      "stateMutability": "nonpayable",
      "type": "function"
    },
    {
      "inputs": [
        {
          "internalType": "uint256",
          "name": "tokenId",
          "type": "uint256"
        }
      ],
      "name": "cancelABetListing",
      "outputs": [],
      "stateMutability": "nonpayable",
      "type": "function"
    },
    {
      "inputs": [
        {
          "internalType": "string[]",
          "name": "choices",
          "type": "string[]"
        },
        {
          "internalType": "uint256",
          "name": "totalPrize",
          "type": "uint256"
        },
        {
          "internalType": "uint256",
          "name": "deadline",
          "type": "uint256"
        }
      ],
      "name": "createAGamble",
      "outputs": [],
      "stateMutability": "nonpayable",
      "type": "function"
    },
    {
      "inputs": [
        {
          "internalType": "uint256",
          "name": "gambleId",
          "type": "uint256"
        },
        {
          "internalType": "uint256",
          "name": "choice",
          "type": "uint256"
        }
      ],
      "name": "declareAGambleResult",
      "outputs": [],
      "stateMutability": "nonpayable",
      "type": "function"
    },
    {
      "inputs": [],
      "name": "easyToken",
      "outputs": [
        {
          "internalType": "contract EasyToken",
          "name": "",
          "type": "address"
        }
      ],
      "stateMutability": "view",
      "type": "function"
    },
    {
      "inputs": [
        {
          "internalType": "uint256",
          "name": "gambleId",
          "type": "uint256"
        }
      ],
      "name": "finishAGamble",
      "outputs": [],
      "stateMutability": "nonpayable",
      "type": "function"
    },
    {
      "inputs": [],
      "name": "gambleCount",
      "outputs": [
        {
          "internalType": "uint256",
          "name": "",
          "type": "uint256"
        }
      ],
      "stateMutability": "view",
      "type": "function"
    },
    {
      "inputs": [
        {
          "internalType": "uint256",
          "name": "",
          "type": "uint256"
        }
      ],
      "name": "gambles",
      "outputs": [
        {
          "internalType": "address",
          "name": "owner",
          "type": "address"
        },
        {
          "internalType": "uint256",
          "name": "listedTimestamp",
          "type": "uint256"
        },
        {
          "internalType": "uint256",
          "name": "deadline",
          "type": "uint256"
        },
        {
          "internalType": "uint256",
          "name": "totalPrize",
          "type": "uint256"
        },
        {
          "internalType": "uint256",
          "name": "winningChoice",
          "type": "uint256"
        },
        {
          "internalType": "bool",
          "name": "finished",
          "type": "bool"
        }
      ],
      "stateMutability": "view",
      "type": "function"
    },
    {
      "inputs": [
        {
          "internalType": "uint256",
          "name": "tokenId",
          "type": "uint256"
        }
      ],
      "name": "getApproved",
      "outputs": [
        {
          "internalType": "address",
          "name": "",
          "type": "address"
        }
      ],
      "stateMutability": "view",
      "type": "function"
    },
    {
      "inputs": [
        {
          "internalType": "uint256",
          "name": "gambleId",
          "type": "uint256"
        }
      ],
      "name": "getGambleBetIds",
      "outputs": [
        {
          "internalType": "uint256[]",
          "name": "",
          "type": "uint256[]"
        }
      ],
      "stateMutability": "view",
      "type": "function"
    },
    {
      "inputs": [
        {
          "internalType": "uint256",
          "name": "gambleId",
          "type": "uint256"
        }
      ],
      "name": "getGambleChoices",
      "outputs": [
        {
          "internalType": "string[]",
          "name": "",
          "type": "string[]"
        }
      ],
      "stateMutability": "view",
      "type": "function"
    },
    {
      "inputs": [
        {
          "internalType": "uint256",
          "name": "gambleId",
          "type": "uint256"
        }
      ],
      "name": "getOrderBookForGamble",
      "outputs": [
        {
          "internalType": "uint256[]",
          "name": "prices",
          "type": "uint256[]"
        },
        {
          "internalType": "uint256[]",
          "name": "choiceIds",
          "type": "uint256[]"
        },
        {
          "internalType": "uint256[]",
          "name": "betIds",
          "type": "uint256[]"
        }
      ],
      "stateMutability": "view",
      "type": "function"
    },
    {
      "inputs": [
        {
          "internalType": "address",
          "name": "_easyTokenAddress",
          "type": "address"
        }
      ],
      "name": "initialize",
      "outputs": [],
      "stateMutability": "nonpayable",
      "type": "function"
    },
    {
      "inputs": [
        {
          "internalType": "address",
          "name": "owner",
          "type": "address"
        },
        {
          "internalType": "address",
          "name": "operator",
          "type": "address"
        }
      ],
      "name": "isApprovedForAll",
      "outputs": [
        {
          "internalType": "bool",
          "name": "",
          "type": "bool"
        }
      ],
      "stateMutability": "view",
      "type": "function"
    },
    {
      "inputs": [
        {
          "internalType": "uint256",
          "name": "betId",
          "type": "uint256"
        },
        {
          "internalType": "uint256",
          "name": "price",
          "type": "uint256"
        }
      ],
      "name": "listABet",
      "outputs": [],
      "stateMutability": "nonpayable",
      "type": "function"
    },
    {
      "inputs": [],
      "name": "name",
      "outputs": [
        {
          "internalType": "string",
          "name": "",
          "type": "string"
        }
      ],
      "stateMutability": "view",
      "type": "function"
    },
    {
      "inputs": [
        {
          "internalType": "uint256",
          "name": "",
          "type": "uint256"
        },
        {
          "internalType": "uint256",
          "name": "",
          "type": "uint256"
        },
        {
          "internalType": "uint256",
          "name": "",
          "type": "uint256"
        }
      ],
      "name": "orderBook",
      "outputs": [
        {
          "internalType": "uint256",
          "name": "tokenId",
          "type": "uint256"
        },
        {
          "internalType": "uint256",
          "name": "listedTimestamp",
          "type": "uint256"
        },
        {
          "internalType": "uint256",
          "name": "price",
          "type": "uint256"
        },
        {
          "internalType": "address",
          "name": "owner",
          "type": "address"
        }
      ],
      "stateMutability": "view",
      "type": "function"
    },
    {
      "inputs": [
        {
          "internalType": "uint256",
          "name": "tokenId",
          "type": "uint256"
        }
      ],
      "name": "ownerOf",
      "outputs": [
        {
          "internalType": "address",
          "name": "",
          "type": "address"
        }
      ],
      "stateMutability": "view",
      "type": "function"
    },
    {
      "inputs": [
        {
          "internalType": "uint256",
          "name": "gambleId",
          "type": "uint256"
        },
        {
          "internalType": "uint256",
          "name": "price",
          "type": "uint256"
        },
        {
          "internalType": "uint256",
          "name": "choice",
          "type": "uint256"
        }
      ],
      "name": "placeABet",
      "outputs": [],
      "stateMutability": "nonpayable",
      "type": "function"
    },
    {
      "inputs": [
        {
          "internalType": "uint256",
          "name": "",
          "type": "uint256"
        },
        {
          "internalType": "uint256",
          "name": "",
          "type": "uint256"
        }
      ],
      "name": "priceLevelExists",
      "outputs": [
        {
          "internalType": "bool",
          "name": "",
          "type": "bool"
        }
      ],
      "stateMutability": "view",
      "type": "function"
    },
    {
      "inputs": [
        {
          "internalType": "uint256",
          "name": "",
          "type": "uint256"
        },
        {
          "internalType": "uint256",
          "name": "",
          "type": "uint256"
        }
      ],
      "name": "priceLevels",
      "outputs": [
        {
          "internalType": "uint256",
          "name": "",
          "type": "uint256"
        }
      ],
      "stateMutability": "view",
      "type": "function"
    },
    {
      "inputs": [
        {
          "internalType": "address",
          "name": "from",
          "type": "address"
        },
        {
          "internalType": "address",
          "name": "to",
          "type": "address"
        },
        {
          "internalType": "uint256",
          "name": "tokenId",
          "type": "uint256"
        }
      ],
      "name": "safeTransferFrom",
      "outputs": [],
      "stateMutability": "nonpayable",
      "type": "function"
    },
    {
      "inputs": [
        {
          "internalType": "address",
          "name": "from",
          "type": "address"
        },
        {
          "internalType": "address",
          "name": "to",
          "type": "address"
        },
        {
          "internalType": "uint256",
          "name": "tokenId",
          "type": "uint256"
        },
        {
          "internalType": "bytes",
          "name": "data",
          "type": "bytes"
        }
      ],
      "name": "safeTransferFrom",
      "outputs": [],
      "stateMutability": "nonpayable",
      "type": "function"
    },
    {
      "inputs": [
        {
          "internalType": "address",
          "name": "operator",
          "type": "address"
        },
        {
          "internalType": "bool",
          "name": "approved",
          "type": "bool"
        }
      ],
      "name": "setApprovalForAll",
      "outputs": [],
      "stateMutability": "nonpayable",
      "type": "function"
    },
    {
      "inputs": [
        {
          "internalType": "bytes4",
          "name": "interfaceId",
          "type": "bytes4"
        }
      ],
      "name": "supportsInterface",
      "outputs": [
        {
          "internalType": "bool",
          "name": "",
          "type": "bool"
        }
      ],
      "stateMutability": "view",
      "type": "function"
    },
    {
      "inputs": [],
      "name": "symbol",
      "outputs": [
        {
          "internalType": "string",
          "name": "",
          "type": "string"
        }
      ],
      "stateMutability": "view",
      "type": "function"
    },
    {
      "inputs": [
        {
          "internalType": "uint256",
          "name": "tokenId",
          "type": "uint256"
        }
      ],
      "name": "tokenURI",
      "outputs": [
        {
          "internalType": "string",
          "name": "",
          "type": "string"
        }
      ],
      "stateMutability": "view",
      "type": "function"
    },
    {
      "inputs": [
        {
          "internalType": "address",
          "name": "from",
          "type": "address"
        },
        {
          "internalType": "address",
          "name": "to",
          "type": "address"
        },
        {
          "internalType": "uint256",
          "name": "tokenId",
          "type": "uint256"
        }
      ],
      "name": "transferFrom",
      "outputs": [],
      "stateMutability": "nonpayable",
      "type": "function"
    }
  ],
  "bytecode": "0x60806040523480156200001157600080fd5b506040518060400160405280600781526020017f45617379426574000000000000000000000000000000000000000000000000008152506040518060400160405280600381526020017f454254000000000000000000000000000000000000000000000000000000000081525081600090816200008f919062000324565b508060019081620000a1919062000324565b5050506200040b565b600081519050919050565b7f4e487b7100000000000000000000000000000000000000000000000000000000600052604160045260246000fd5b7f4e487b7100000000000000000000000000000000000000000000000000000000600052602260045260246000fd5b600060028204905060018216806200012c57607f821691505b602082108103620001425762000141620000e4565b5b50919050565b60008190508160005260206000209050919050565b60006020601f8301049050919050565b600082821b905092915050565b600060088302620001ac7fffffffffffffffffffffffffffffffffffffffffffffffffffffffffffffffff826200016d565b620001b886836200016d565b95508019841693508086168417925050509392505050565b6000819050919050565b6000819050919050565b600062000205620001ff620001f984620001d0565b620001da565b620001d0565b9050919050565b6000819050919050565b6200022183620001e4565b6200023962000230826200020c565b8484546200017a565b825550505050565b600090565b6200025062000241565b6200025d81848462000216565b505050565b5b8181101562000285576200027960008262000246565b60018101905062000263565b5050565b601f821115620002d4576200029e8162000148565b620002a9846200015d565b81016020851015620002b9578190505b620002d1620002c8856200015d565b83018262000262565b50505b505050565b600082821c905092915050565b6000620002f960001984600802620002d9565b1980831691505092915050565b6000620003148383620002e6565b9150826002028217905092915050565b6200032f82620000aa565b67ffffffffffffffff8111156200034b576200034a620000b5565b5b62000357825462000113565b6200036482828562000289565b600060209050601f8311600181146200039c576000841562000387578287015190505b62000393858262000306565b86555062000403565b601f198416620003ac8662000148565b60005b82811015620003d657848901518255600182019150602085019450602081019050620003af565b86831015620003f65784890151620003f2601f891682620002e6565b8355505b6001600288020188555050505b505050505050565b615e76806200041b6000396000f3fe608060405234801561001057600080fd5b50600436106101fb5760003560e01c80637b76e40b1161011a578063b88d4fde116100ad578063c937de041161007c578063c937de0414610642578063cf0944971461065e578063e6124f2b1461067c578063e985e9c514610698578063ee9891f1146106c8576101fb565b8063b88d4fde146105a5578063c1e77c4a146105c1578063c4d66de8146105f6578063c87b56dd14610612576101fb565b80639ce54999116100e95780639ce549991461051e5780639f381f6f1461053a578063a22cb4651461056d578063a649503d14610589576101fb565b80637b76e40b1461046e57806386ceb2ba146104a05780639454b5dd146104d057806395d89b4114610500576101fb565b806341203f1e1161019257806361115ced1161016157806361115ced146103c05780636352211e146103f057806370a0823114610420578063740513ea14610450576101fb565b806341203f1e1461032557806342842e0e14610341578063491a38d41461035d57806354ff3fc41461038d576101fb565b80630ed52aff116101ce5780630ed52aff1461029a57806322af00fa146102b657806323b872dd146102eb5780633f25de8314610307576101fb565b806301ffc9a71461020057806306fdde0314610230578063081812fc1461024e578063095ea7b31461027e575b600080fd5b61021a600480360381019061021591906141b8565b6106e4565b6040516102279190614200565b60405180910390f35b6102386107c6565b60405161024591906142ab565b60405180910390f35b61026860048036038101906102639190614303565b610858565b6040516102759190614371565b60405180910390f35b610298600480360381019061029391906143b8565b610874565b005b6102b460048036038101906102af9190614303565b61088a565b005b6102d060048036038101906102cb9190614303565b610ec0565b6040516102e296959493929190614407565b60405180910390f35b61030560048036038101906103009190614468565b610f29565b005b61030f61102b565b60405161031c91906144bb565b60405180910390f35b61033f600480360381019061033a91906146f1565b611031565b005b61035b60048036038101906103569190614468565b6113d9565b005b61037760048036038101906103729190614303565b6113f9565b604051610384919061481e565b60405180910390f35b6103a760048036038101906103a29190614303565b611467565b6040516103b79493929190614840565b60405180910390f35b6103da60048036038101906103d59190614303565b6114b7565b6040516103e79190614991565b60405180910390f35b61040a60048036038101906104059190614303565b6115a6565b6040516104179190614371565b60405180910390f35b61043a600480360381019061043591906149b3565b6115b8565b60405161044791906144bb565b60405180910390f35b610458611672565b6040516104659190614a3f565b60405180910390f35b61048860048036038101906104839190614303565b611698565b60405161049793929190614a5a565b60405180910390f35b6104ba60048036038101906104b59190614aa6565b6119ea565b6040516104c791906144bb565b60405180910390f35b6104ea60048036038101906104e59190614aa6565b611a1b565b6040516104f79190614200565b60405180910390f35b610508611a4a565b60405161051591906142ab565b60405180910390f35b61053860048036038101906105339190614303565b611adc565b005b610554600480360381019061054f9190614ae6565b611cd9565b6040516105649493929190614840565b60405180910390f35b61058760048036038101906105829190614b65565b611d53565b005b6105a3600480360381019061059e9190614aa6565b611d69565b005b6105bf60048036038101906105ba9190614c46565b612170565b005b6105db60048036038101906105d69190614303565b61218d565b6040516105ed96959493929190614407565b60405180910390f35b610610600480360381019061060b91906149b3565b6121f6565b005b61062c60048036038101906106279190614303565b61223a565b60405161063991906142ab565b60405180910390f35b61065c60048036038101906106579190614aa6565b6122a3565b005b61066661242e565b60405161067391906144bb565b60405180910390f35b61069660048036038101906106919190614ae6565b612434565b005b6106b260048036038101906106ad9190614cc9565b612870565b6040516106bf9190614200565b60405180910390f35b6106e260048036038101906106dd9190614303565b612904565b005b60007f80ac58cd000000000000000000000000000000000000000000000000000000007bffffffffffffffffffffffffffffffffffffffffffffffffffffffff1916827bffffffffffffffffffffffffffffffffffffffffffffffffffffffff191614806107af57507f5b5e139f000000000000000000000000000000000000000000000000000000007bffffffffffffffffffffffffffffffffffffffffffffffffffffffff1916827bffffffffffffffffffffffffffffffffffffffffffffffffffffffff1916145b806107bf57506107be82612bed565b5b9050919050565b6060600080546107d590614d38565b80601f016020809104026020016040519081016040528092919081815260200182805461080190614d38565b801561084e5780601f106108235761010080835404028352916020019161084e565b820191906000526020600020905b81548152906001019060200180831161083157829003601f168201915b5050505050905090565b600061086382612c57565b5061086d82612cdf565b9050919050565b6108868282610881612d1c565b612d24565b5050565b6000600a600083815260200190815260200160002090503373ffffffffffffffffffffffffffffffffffffffff168160000160009054906101000a900473ffffffffffffffffffffffffffffffffffffffff1673ffffffffffffffffffffffffffffffffffffffff1614610933576040517f08c379a000000000000000000000000000000000000000000000000000000000815260040161092a90614ddb565b60405180910390fd5b7fffffffffffffffffffffffffffffffffffffffffffffffffffffffffffffffff816006015403610999576040517f08c379a000000000000000000000000000000000000000000000000000000000815260040161099090614e47565b60405180910390fd5b8060070160009054906101000a900460ff16156109eb576040517f08c379a00000000000000000000000000000000000000000000000000000000081526004016109e290614eb3565b60405180910390fd5b60018160070160006101000a81548160ff0219169083151502179055506000805b8260050180549050811015610a8a576000836005018281548110610a3357610a32614ed3565b5b906000526020600020015490506000600b600083815260200190815260200160002090508460060154816004015403610a75578380610a7190614f31565b9450505b50508080610a8290614f31565b915050610a0c565b506000811115610dba576000818360030154610aa69190614fa8565b905060005b8360050180549050811015610db3576000846005018281548110610ad257610ad1614ed3565b5b906000526020600020015490506000600b600083815260200190815260200160002090508560060154816004015403610d9e57610b446040518060400160405280602081526020017f5472616e7366657272696e67207072697a6520666f722062657449643a20256481525083612d36565b610ba76040518060400160405280600d81526020017f426574206f776e65723a202573000000000000000000000000000000000000008152508260000160009054906101000a900473ffffffffffffffffffffffffffffffffffffffff16612dd2565b610be66040518060400160405280601081526020017f5072697a6520616d6f756e743a2025640000000000000000000000000000000081525085612d36565b600073ffffffffffffffffffffffffffffffffffffffff168160000160009054906101000a900473ffffffffffffffffffffffffffffffffffffffff1673ffffffffffffffffffffffffffffffffffffffff1603610c79576040517f08c379a0000000000000000000000000000000000000000000000000000000008152600401610c7090615025565b60405180910390fd5b600660009054906101000a900473ffffffffffffffffffffffffffffffffffffffff1673ffffffffffffffffffffffffffffffffffffffff1663a9059cbb8260000160009054906101000a900473ffffffffffffffffffffffffffffffffffffffff16866040518363ffffffff1660e01b8152600401610cfa929190615045565b6020604051808303816000875af1158015610d19573d6000803e3d6000fd5b505050506040513d601f19601f82011682018060405250810190610d3d9190615083565b507fd29f668627eed111ef23a47210867697c0b3b07fd1d5b9cfe9c8e02823b749ea82858360000160009054906101000a900473ffffffffffffffffffffffffffffffffffffffff16604051610d95939291906150b0565b60405180910390a15b50508080610dab90614f31565b915050610aab565b5050610e84565b600660009054906101000a900473ffffffffffffffffffffffffffffffffffffffff1673ffffffffffffffffffffffffffffffffffffffff1663a9059cbb8360000160009054906101000a900473ffffffffffffffffffffffffffffffffffffffff1684600301546040518363ffffffff1660e01b8152600401610e3f929190615045565b6020604051808303816000875af1158015610e5e573d6000803e3d6000fd5b505050506040513d601f19601f82011682018060405250810190610e829190615083565b505b7ff980f2a2009f13674dec702fff3531645e56f3c5f1d169f90fc5f91da296c87b83604051610eb391906144bb565b60405180910390a1505050565b600b6020528060005260406000206000915090508060000160009054906101000a900473ffffffffffffffffffffffffffffffffffffffff16908060010154908060020154908060030154908060040154908060050160009054906101000a900460ff16905086565b600073ffffffffffffffffffffffffffffffffffffffff168273ffffffffffffffffffffffffffffffffffffffff1603610f9b5760006040517f64a0ae92000000000000000000000000000000000000000000000000000000008152600401610f929190614371565b60405180910390fd5b6000610faf8383610faa612d1c565b612e6e565b90508373ffffffffffffffffffffffffffffffffffffffff168173ffffffffffffffffffffffffffffffffffffffff1614611025578382826040517f64283d7b00000000000000000000000000000000000000000000000000000000815260040161101c939291906150e7565b60405180910390fd5b50505050565b600d5481565b600283511015611076576040517f08c379a000000000000000000000000000000000000000000000000000000000815260040161106d9061516a565b60405180910390fd5b600082116110b9576040517f08c379a00000000000000000000000000000000000000000000000000000000081526004016110b0906151fc565b60405180910390fd5b4281116110fb576040517f08c379a00000000000000000000000000000000000000000000000000000000081526004016110f290615268565b60405180910390fd5b6000600660009054906101000a900473ffffffffffffffffffffffffffffffffffffffff1673ffffffffffffffffffffffffffffffffffffffff166323b872dd3330866040518463ffffffff1660e01b815260040161115c93929190615288565b6020604051808303816000875af115801561117b573d6000803e3d6000fd5b505050506040513d601f19601f8201168201806040525081019061119f9190615083565b9050806111e1576040517f08c379a00000000000000000000000000000000000000000000000000000000081526004016111d89061530b565b60405180910390fd5b6040518061010001604052803373ffffffffffffffffffffffffffffffffffffffff168152602001428152602001838152602001848152602001858152602001600067ffffffffffffffff81111561123c5761123b6144db565b5b60405190808252806020026020018201604052801561126a5781602001602082028036833780820191505090505b5081526020017fffffffffffffffffffffffffffffffffffffffffffffffffffffffffffffffff815260200160001515815250600a6000600d54815260200190815260200160002060008201518160000160006101000a81548173ffffffffffffffffffffffffffffffffffffffff021916908373ffffffffffffffffffffffffffffffffffffffff160217905550602082015181600101556040820151816002015560608201518160030155608082015181600401908051906020019061133392919061401b565b5060a0820151816005019080519060200190611350929190614074565b5060c0820151816006015560e08201518160070160006101000a81548160ff0219169083151502179055509050507f545de2572a7163d74e07240b5d4dca936cb954795fe8c9f8cfbc9e4b80fbf96b600d5485336040516113b39392919061532b565b60405180910390a1600d60008154809291906113ce90614f31565b919050555050505050565b6113f483838360405180602001604052806000815250612170565b505050565b6060600a600083815260200190815260200160002060050180548060200260200160405190810160405280929190818152602001828054801561145b57602002820191906000526020600020905b815481526020019060010190808311611447575b50505050509050919050565b600c6020528060005260406000206000915090508060000154908060010154908060020154908060030160009054906101000a900473ffffffffffffffffffffffffffffffffffffffff16905084565b6060600a6000838152602001908152602001600020600401805480602002602001604051908101604052809291908181526020016000905b8282101561159b57838290600052602060002001805461150e90614d38565b80601f016020809104026020016040519081016040528092919081815260200182805461153a90614d38565b80156115875780601f1061155c57610100808354040283529160200191611587565b820191906000526020600020905b81548152906001019060200180831161156a57829003601f168201915b5050505050815260200190600101906114ef565b505050509050919050565b60006115b182612c57565b9050919050565b60008073ffffffffffffffffffffffffffffffffffffffff168273ffffffffffffffffffffffffffffffffffffffff160361162b5760006040517f89c62b640000000000000000000000000000000000000000000000000000000081526004016116229190614371565b60405180910390fd5b600360008373ffffffffffffffffffffffffffffffffffffffff1673ffffffffffffffffffffffffffffffffffffffff168152602001908152602001600020549050919050565b600660009054906101000a900473ffffffffffffffffffffffffffffffffffffffff1681565b60608060606000600a600086815260200190815260200160002090506000816004018054905090506000805b600860008981526020019081526020016000208054905081101561175f576000600860008a8152602001908152602001600020828154811061170957611708614ed3565b5b90600052602060002001549050600760008a8152602001908152602001600020600082815260200190815260200160002080549050836117499190615369565b925050808061175790614f31565b9150506116c4565b508067ffffffffffffffff81111561177a576117796144db565b5b6040519080825280602002602001820160405280156117a85781602001602082028036833780820191505090505b5095508067ffffffffffffffff8111156117c5576117c46144db565b5b6040519080825280602002602001820160405280156117f35781602001602082028036833780820191505090505b5094508067ffffffffffffffff8111156118105761180f6144db565b5b60405190808252806020026020018201604052801561183e5781602001602082028036833780820191505090505b5093506000805b600860008a8152602001908152602001600020805490508110156119cc576000600860008b8152602001908152602001600020828154811061188a57611889614ed3565b5b906000526020600020015490506000600760008c81526020019081526020016000206000838152602001908152602001600020905060005b868110156119b65760005b82805490508110156119a25760008382815481106118ee576118ed614ed3565b5b906000526020600020906004020160000154905082600b6000838152602001908152602001600020600401540361198e57848d888151811061193357611932614ed3565b5b602002602001018181525050828c888151811061195357611952614ed3565b5b602002602001018181525050808b888151811061197357611972614ed3565b5b602002602001018181525050868061198a90614f31565b9750505b50808061199a90614f31565b9150506118cd565b5080806119ae90614f31565b9150506118c2565b50505080806119c490614f31565b915050611845565b50818110156119df578087528086528085525b505050509193909250565b60086020528160005260406000208181548110611a0657600080fd5b90600052602060002001600091509150505481565b60096020528160005260406000206020528060005260406000206000915091509054906101000a900460ff1681565b606060018054611a5990614d38565b80601f0160208091040260200160405190810160405280929190818152602001828054611a8590614d38565b8015611ad25780601f10611aa757610100808354040283529160200191611ad2565b820191906000526020600020905b815481529060010190602001808311611ab557829003601f168201915b5050505050905090565b6000600c60008381526020019081526020016000209050600073ffffffffffffffffffffffffffffffffffffffff168160030160009054906101000a900473ffffffffffffffffffffffffffffffffffffffff1673ffffffffffffffffffffffffffffffffffffffff1603611b86576040517f08c379a0000000000000000000000000000000000000000000000000000000008152600401611b7d906153e9565b60405180910390fd5b3373ffffffffffffffffffffffffffffffffffffffff168160030160009054906101000a900473ffffffffffffffffffffffffffffffffffffffff1673ffffffffffffffffffffffffffffffffffffffff1614611c18576040517f08c379a0000000000000000000000000000000000000000000000000000000008152600401611c0f9061547b565b60405180910390fd5b6000600b600084815260200190815260200160002060050160006101000a81548160ff021916908315150217905550600c6000838152602001908152602001600020600080820160009055600182016000905560028201600090556003820160006101000a81549073ffffffffffffffffffffffffffffffffffffffff021916905550507fe621e736490070b3f415e6d80ea47d9e0e86f7367ce19dcc925a1da76ff223c88233604051611ccd92919061549b565b60405180910390a15050565b60076020528260005260406000206020528160005260406000208181548110611d0157600080fd5b906000526020600020906004020160009250925050508060000154908060010154908060020154908060030160009054906101000a900473ffffffffffffffffffffffffffffffffffffffff16905084565b611d65611d5e612d1c565b8383613088565b5050565b600073ffffffffffffffffffffffffffffffffffffffff16611d8a836115a6565b73ffffffffffffffffffffffffffffffffffffffff1603611de0576040517f08c379a0000000000000000000000000000000000000000000000000000000008152600401611dd790615510565b60405180910390fd5b3373ffffffffffffffffffffffffffffffffffffffff16611e00836115a6565b73ffffffffffffffffffffffffffffffffffffffff1614611e56576040517f08c379a0000000000000000000000000000000000000000000000000000000008152600401611e4d9061557c565b60405180910390fd5b60008111611e99576040517f08c379a0000000000000000000000000000000000000000000000000000000008152600401611e90906155e8565b60405180910390fd5b6000600b6000848152602001908152602001600020905060008160020154905060405180608001604052808581526020014281526020018481526020013373ffffffffffffffffffffffffffffffffffffffff16815250600c600086815260200190815260200160002060008201518160000155602082015181600101556040820151816002015560608201518160030160006101000a81548173ffffffffffffffffffffffffffffffffffffffff021916908373ffffffffffffffffffffffffffffffffffffffff1602179055509050506001600b600086815260200190815260200160002060050160006101000a81548160ff021916908315150217905550600760008281526020019081526020016000206000848152602001908152602001600020600c600086815260200190815260200160002090806001815401808255809150506001900390600052602060002090600402016000909190919091506000820154816000015560018201548160010155600282015481600201556003820160009054906101000a900473ffffffffffffffffffffffffffffffffffffffff168160030160006101000a81548173ffffffffffffffffffffffffffffffffffffffff021916908373ffffffffffffffffffffffffffffffffffffffff160217905550505060096000828152602001908152602001600020600084815260200190815260200160002060009054906101000a900460ff1661212f5760086000828152602001908152602001600020839080600181540180825580915050600190039060005260206000200160009091909190915055600160096000838152602001908152602001600020600085815260200190815260200160002060006101000a81548160ff0219169083151502179055505b7f2795bdb5ac2fd3280cc8b22977ab194a8544252b5dbdd2334830c5448deb5c25848433604051612162939291906150b0565b60405180910390a150505050565b61217b848484610f29565b612187848484846131f7565b50505050565b600a6020528060005260406000206000915090508060000160009054906101000a900473ffffffffffffffffffffffffffffffffffffffff16908060010154908060020154908060030154908060060154908060070160009054906101000a900460ff16905086565b80600660006101000a81548173ffffffffffffffffffffffffffffffffffffffff021916908373ffffffffffffffffffffffffffffffffffffffff16021790555050565b606061224582612c57565b5060006122506133ae565b90506000815111612270576040518060200160405280600081525061229b565b8061227a846133c5565b60405160200161228b929190615644565b6040516020818303038152906040525b915050919050565b6000600a600084815260200190815260200160002090503373ffffffffffffffffffffffffffffffffffffffff168160000160009054906101000a900473ffffffffffffffffffffffffffffffffffffffff1673ffffffffffffffffffffffffffffffffffffffff161461234c576040517f08c379a0000000000000000000000000000000000000000000000000000000008152600401612343906156da565b60405180910390fd5b80600401805490508210612395576040517f08c379a000000000000000000000000000000000000000000000000000000000815260040161238c90615746565b60405180910390fd5b8060070160009054906101000a900460ff16156123e7576040517f08c379a00000000000000000000000000000000000000000000000000000000081526004016123de906157b2565b60405180910390fd5b8181600601819055507fcf70e0c5961c2dc2269c0e04e3ca7f59750769e35d1a8318486a291d5fb88c8483836040516124219291906157d2565b60405180910390a1505050565b600e5481565b6000600a60008581526020019081526020016000209050600073ffffffffffffffffffffffffffffffffffffffff168160000160009054906101000a900473ffffffffffffffffffffffffffffffffffffffff1673ffffffffffffffffffffffffffffffffffffffff16036124de576040517f08c379a00000000000000000000000000000000000000000000000000000000081526004016124d590615847565b60405180910390fd5b8060070160009054906101000a900460ff1615612530576040517f08c379a0000000000000000000000000000000000000000000000000000000008152600401612527906157b2565b60405180910390fd5b80600201544210612576576040517f08c379a000000000000000000000000000000000000000000000000000000000815260040161256d906158b3565b60405180910390fd5b806004018054905082106125bf576040517f08c379a00000000000000000000000000000000000000000000000000000000081526004016125b690615746565b60405180910390fd5b60008311612602576040517f08c379a00000000000000000000000000000000000000000000000000000000081526004016125f990615945565b60405180910390fd5b6000600660009054906101000a900473ffffffffffffffffffffffffffffffffffffffff1673ffffffffffffffffffffffffffffffffffffffff166323b872dd3330876040518463ffffffff1660e01b815260040161266393929190615288565b6020604051808303816000875af1158015612682573d6000803e3d6000fd5b505050506040513d601f19601f820116820180604052508101906126a69190615083565b9050806126e8576040517f08c379a00000000000000000000000000000000000000000000000000000000081526004016126df906159d7565b60405180910390fd5b6000600e5490506126f93382613493565b6040518060c001604052803373ffffffffffffffffffffffffffffffffffffffff16815260200142815260200187815260200186815260200185815260200160001515815250600b6000600e54815260200190815260200160002060008201518160000160006101000a81548173ffffffffffffffffffffffffffffffffffffffff021916908373ffffffffffffffffffffffffffffffffffffffff1602179055506020820151816001015560408201518160020155606082015181600301556080820151816004015560a08201518160050160006101000a81548160ff02191690831515021790555090505082600501600e5490806001815401808255809150506001900390600052602060002001600090919091909150557fcab2b69c9bd52c70281e758caba2ed7bf9140474a8c3e81ceafa1eb0b303a22b600e548633604051612848939291906150b0565b60405180910390a1600e600081548092919061286390614f31565b9190505550505050505050565b6000600560008473ffffffffffffffffffffffffffffffffffffffff1673ffffffffffffffffffffffffffffffffffffffff16815260200190815260200160002060008373ffffffffffffffffffffffffffffffffffffffff1673ffffffffffffffffffffffffffffffffffffffff16815260200190815260200160002060009054906101000a900460ff16905092915050565b6000600c60008381526020019081526020016000209050600073ffffffffffffffffffffffffffffffffffffffff168160030160009054906101000a900473ffffffffffffffffffffffffffffffffffffffff1673ffffffffffffffffffffffffffffffffffffffff16036129ae576040517f08c379a00000000000000000000000000000000000000000000000000000000081526004016129a5906153e9565b60405180910390fd5b60008160030160009054906101000a900473ffffffffffffffffffffffffffffffffffffffff169050600082600201549050600660009054906101000a900473ffffffffffffffffffffffffffffffffffffffff1673ffffffffffffffffffffffffffffffffffffffff166323b872dd3384846040518463ffffffff1660e01b8152600401612a3f93929190615288565b6020604051808303816000875af1158015612a5e573d6000803e3d6000fd5b505050506040513d601f19601f82011682018060405250810190612a829190615083565b50612ab28360030160009054906101000a900473ffffffffffffffffffffffffffffffffffffffff1633866134b1565b33600b600086815260200190815260200160002060000160006101000a81548173ffffffffffffffffffffffffffffffffffffffff021916908373ffffffffffffffffffffffffffffffffffffffff1602179055506000600b600086815260200190815260200160002060050160006101000a81548160ff021916908315150217905550612b57600b600086815260200190815260200160002060020154828661361e565b600c6000858152602001908152602001600020600080820160009055600182016000905560028201600090556003820160006101000a81549073ffffffffffffffffffffffffffffffffffffffff021916905550507fc473ca3b88f02bf7fc1684f3df4caef261acacf64f3eeb502e8c1b42404b9dbd848233604051612bdf939291906150b0565b60405180910390a150505050565b60007f01ffc9a7000000000000000000000000000000000000000000000000000000007bffffffffffffffffffffffffffffffffffffffffffffffffffffffff1916827bffffffffffffffffffffffffffffffffffffffffffffffffffffffff1916149050919050565b600080612c638361389f565b9050600073ffffffffffffffffffffffffffffffffffffffff168173ffffffffffffffffffffffffffffffffffffffff1603612cd657826040517f7e273289000000000000000000000000000000000000000000000000000000008152600401612ccd91906144bb565b60405180910390fd5b80915050919050565b60006004600083815260200190815260200160002060009054906101000a900473ffffffffffffffffffffffffffffffffffffffff169050919050565b600033905090565b612d3183838360016138dc565b505050565b612dce8282604051602401612d4c9291906159f7565b6040516020818303038152906040527fb60e72cc000000000000000000000000000000000000000000000000000000007bffffffffffffffffffffffffffffffffffffffffffffffffffffffff19166020820180517bffffffffffffffffffffffffffffffffffffffffffffffffffffffff8381831617835250505050613aa1565b5050565b612e6a8282604051602401612de8929190615a27565b6040516020818303038152906040527f319af333000000000000000000000000000000000000000000000000000000007bffffffffffffffffffffffffffffffffffffffffffffffffffffffff19166020820180517bffffffffffffffffffffffffffffffffffffffffffffffffffffffff8381831617835250505050613aa1565b5050565b600080612e7a8461389f565b9050600073ffffffffffffffffffffffffffffffffffffffff168373ffffffffffffffffffffffffffffffffffffffff1614612ebc57612ebb818486613abb565b5b600073ffffffffffffffffffffffffffffffffffffffff168173ffffffffffffffffffffffffffffffffffffffff1614612f4d57612efe6000856000806138dc565b6001600360008373ffffffffffffffffffffffffffffffffffffffff1673ffffffffffffffffffffffffffffffffffffffff168152602001908152602001600020600082825403925050819055505b600073ffffffffffffffffffffffffffffffffffffffff168573ffffffffffffffffffffffffffffffffffffffff1614612fd0576001600360008773ffffffffffffffffffffffffffffffffffffffff1673ffffffffffffffffffffffffffffffffffffffff168152602001908152602001600020600082825401925050819055505b846002600086815260200190815260200160002060006101000a81548173ffffffffffffffffffffffffffffffffffffffff021916908373ffffffffffffffffffffffffffffffffffffffff160217905550838573ffffffffffffffffffffffffffffffffffffffff168273ffffffffffffffffffffffffffffffffffffffff167fddf252ad1be2c89b69c2b068fc378daa952ba7f163c4a11628f55a4df523b3ef60405160405180910390a4809150509392505050565b600073ffffffffffffffffffffffffffffffffffffffff168273ffffffffffffffffffffffffffffffffffffffff16036130f957816040517f5b08ba180000000000000000000000000000000000000000000000000000000081526004016130f09190614371565b60405180910390fd5b80600560008573ffffffffffffffffffffffffffffffffffffffff1673ffffffffffffffffffffffffffffffffffffffff16815260200190815260200160002060008473ffffffffffffffffffffffffffffffffffffffff1673ffffffffffffffffffffffffffffffffffffffff16815260200190815260200160002060006101000a81548160ff0219169083151502179055508173ffffffffffffffffffffffffffffffffffffffff168373ffffffffffffffffffffffffffffffffffffffff167f17307eab39ab6107e8899845ad3d59bd9653f200f220920489ca2b5937696c31836040516131ea9190614200565b60405180910390a3505050565b60008373ffffffffffffffffffffffffffffffffffffffff163b11156133a8578273ffffffffffffffffffffffffffffffffffffffff1663150b7a0261323b612d1c565b8685856040518563ffffffff1660e01b815260040161325d9493929190615aac565b6020604051808303816000875af192505050801561329957506040513d601f19601f820116820180604052508101906132969190615b0d565b60015b61331d573d80600081146132c9576040519150601f19603f3d011682016040523d82523d6000602084013e6132ce565b606091505b50600081510361331557836040517f64a0ae9200000000000000000000000000000000000000000000000000000000815260040161330c9190614371565b60405180910390fd5b805181602001fd5b63150b7a0260e01b7bffffffffffffffffffffffffffffffffffffffffffffffffffffffff1916817bffffffffffffffffffffffffffffffffffffffffffffffffffffffff1916146133a657836040517f64a0ae9200000000000000000000000000000000000000000000000000000000815260040161339d9190614371565b60405180910390fd5b505b50505050565b606060405180602001604052806000815250905090565b6060600060016133d484613b7f565b01905060008167ffffffffffffffff8111156133f3576133f26144db565b5b6040519080825280601f01601f1916602001820160405280156134255781602001600182028036833780820191505090505b509050600082602001820190505b600115613488578080600190039150507f3031323334353637383961626364656600000000000000000000000000000000600a86061a8153600a858161347c5761347b614f79565b5b04945060008503613433575b819350505050919050565b6134ad828260405180602001604052806000815250613cd2565b5050565b600073ffffffffffffffffffffffffffffffffffffffff168273ffffffffffffffffffffffffffffffffffffffff16036135235760006040517f64a0ae9200000000000000000000000000000000000000000000000000000000815260040161351a9190614371565b60405180910390fd5b600061353183836000612e6e565b9050600073ffffffffffffffffffffffffffffffffffffffff168173ffffffffffffffffffffffffffffffffffffffff16036135a457816040517f7e27328900000000000000000000000000000000000000000000000000000000815260040161359b91906144bb565b60405180910390fd5b8373ffffffffffffffffffffffffffffffffffffffff168173ffffffffffffffffffffffffffffffffffffffff1614613618578382826040517f64283d7b00000000000000000000000000000000000000000000000000000000815260040161360f939291906150e7565b60405180910390fd5b50505050565b6000600760008581526020019081526020016000206000848152602001908152602001600020905060007fffffffffffffffffffffffffffffffffffffffffffffffffffffffffffffffff905060005b82805490508110156136c0578383828154811061368e5761368d614ed3565b5b906000526020600020906004020160000154036136ad578091506136c0565b80806136b890614f31565b91505061366e565b507fffffffffffffffffffffffffffffffffffffffffffffffffffffffffffffffff811461389857600182805490506136f99190615b3a565b81146137da5781600183805490506137119190615b3a565b8154811061372257613721614ed3565b5b906000526020600020906004020182828154811061374357613742614ed3565b5b90600052602060002090600402016000820154816000015560018201548160010155600282015481600201556003820160009054906101000a900473ffffffffffffffffffffffffffffffffffffffff168160030160006101000a81548173ffffffffffffffffffffffffffffffffffffffff021916908373ffffffffffffffffffffffffffffffffffffffff1602179055509050505b818054806137eb576137ea615b6e565b5b6001900381819060005260206000209060040201600080820160009055600182016000905560028201600090556003820160006101000a81549073ffffffffffffffffffffffffffffffffffffffff021916905550509055600082805490500361389757600060096000878152602001908152602001600020600086815260200190815260200160002060006101000a81548160ff0219169083151502179055506138968585613cee565b5b5b5050505050565b60006002600083815260200190815260200160002060009054906101000a900473ffffffffffffffffffffffffffffffffffffffff169050919050565b80806139155750600073ffffffffffffffffffffffffffffffffffffffff168273ffffffffffffffffffffffffffffffffffffffff1614155b15613a4957600061392584612c57565b9050600073ffffffffffffffffffffffffffffffffffffffff168373ffffffffffffffffffffffffffffffffffffffff161415801561399057508273ffffffffffffffffffffffffffffffffffffffff168173ffffffffffffffffffffffffffffffffffffffff1614155b80156139a357506139a18184612870565b155b156139e557826040517fa9fbf51f0000000000000000000000000000000000000000000000000000000081526004016139dc9190614371565b60405180910390fd5b8115613a4757838573ffffffffffffffffffffffffffffffffffffffff168273ffffffffffffffffffffffffffffffffffffffff167f8c5be1e5ebec7d5bd14f71427d1e84f3dd0314c0f7b2291e5b200ac8c7c3b92560405160405180910390a45b505b836004600085815260200190815260200160002060006101000a81548173ffffffffffffffffffffffffffffffffffffffff021916908373ffffffffffffffffffffffffffffffffffffffff16021790555050505050565b613ab881613ab0613e35613e56565b63ffffffff16565b50565b613ac6838383613e61565b613b7a57600073ffffffffffffffffffffffffffffffffffffffff168373ffffffffffffffffffffffffffffffffffffffff1603613b3b57806040517f7e273289000000000000000000000000000000000000000000000000000000008152600401613b3291906144bb565b60405180910390fd5b81816040517f177e802f000000000000000000000000000000000000000000000000000000008152600401613b71929190615045565b60405180910390fd5b505050565b600080600090507a184f03e93ff9f4daa797ed6e38ed64bf6a1f0100000000000000008310613bdd577a184f03e93ff9f4daa797ed6e38ed64bf6a1f0100000000000000008381613bd357613bd2614f79565b5b0492506040810190505b6d04ee2d6d415b85acef81000000008310613c1a576d04ee2d6d415b85acef81000000008381613c1057613c0f614f79565b5b0492506020810190505b662386f26fc100008310613c4957662386f26fc100008381613c3f57613c3e614f79565b5b0492506010810190505b6305f5e1008310613c72576305f5e1008381613c6857613c67614f79565b5b0492506008810190505b6127108310613c97576127108381613c8d57613c8c614f79565b5b0492506004810190505b60648310613cba5760648381613cb057613caf614f79565b5b0492506002810190505b600a8310613cc9576001810190505b80915050919050565b613cdc8383613f22565b613ce960008484846131f7565b505050565b600060086000848152602001908152602001600020905060007fffffffffffffffffffffffffffffffffffffffffffffffffffffffffffffffff905060005b8280549050811015613d785783838281548110613d4d57613d4c614ed3565b5b906000526020600020015403613d6557809150613d78565b8080613d7090614f31565b915050613d2d565b507fffffffffffffffffffffffffffffffffffffffffffffffffffffffffffffffff8114613e2f5760018280549050613db19190615b3a565b8114613e07578160018380549050613dc99190615b3a565b81548110613dda57613dd9614ed3565b5b9060005260206000200154828281548110613df857613df7614ed3565b5b90600052602060002001819055505b81805480613e1857613e17615b6e565b5b600190038181906000526020600020016000905590555b50505050565b60006a636f6e736f6c652e6c6f679050600080835160208501845afa505050565b6140c1819050919050565b60008073ffffffffffffffffffffffffffffffffffffffff168373ffffffffffffffffffffffffffffffffffffffff1614158015613f1957508273ffffffffffffffffffffffffffffffffffffffff168473ffffffffffffffffffffffffffffffffffffffff161480613eda5750613ed98484612870565b5b80613f1857508273ffffffffffffffffffffffffffffffffffffffff16613f0083612cdf565b73ffffffffffffffffffffffffffffffffffffffff16145b5b90509392505050565b600073ffffffffffffffffffffffffffffffffffffffff168273ffffffffffffffffffffffffffffffffffffffff1603613f945760006040517f64a0ae92000000000000000000000000000000000000000000000000000000008152600401613f8b9190614371565b60405180910390fd5b6000613fa283836000612e6e565b9050600073ffffffffffffffffffffffffffffffffffffffff168173ffffffffffffffffffffffffffffffffffffffff16146140165760006040517f73c6ac6e00000000000000000000000000000000000000000000000000000000815260040161400d9190614371565b60405180910390fd5b505050565b828054828255906000526020600020908101928215614063579160200282015b828111156140625782518290816140529190615d3f565b509160200191906001019061403b565b5b50905061407091906140cb565b5090565b8280548282559060005260206000209081019282156140b0579160200282015b828111156140af578251825591602001919060010190614094565b5b5090506140bd91906140ef565b5090565b6140c9615e11565b565b5b808211156140eb57600081816140e2919061410c565b506001016140cc565b5090565b5b808211156141085760008160009055506001016140f0565b5090565b50805461411890614d38565b6000825580601f1061412a5750614149565b601f01602090049060005260206000209081019061414891906140ef565b5b50565b6000604051905090565b600080fd5b600080fd5b60007fffffffff0000000000000000000000000000000000000000000000000000000082169050919050565b61419581614160565b81146141a057600080fd5b50565b6000813590506141b28161418c565b92915050565b6000602082840312156141ce576141cd614156565b5b60006141dc848285016141a3565b91505092915050565b60008115159050919050565b6141fa816141e5565b82525050565b600060208201905061421560008301846141f1565b92915050565b600081519050919050565b600082825260208201905092915050565b60005b8381101561425557808201518184015260208101905061423a565b60008484015250505050565b6000601f19601f8301169050919050565b600061427d8261421b565b6142878185614226565b9350614297818560208601614237565b6142a081614261565b840191505092915050565b600060208201905081810360008301526142c58184614272565b905092915050565b6000819050919050565b6142e0816142cd565b81146142eb57600080fd5b50565b6000813590506142fd816142d7565b92915050565b60006020828403121561431957614318614156565b5b6000614327848285016142ee565b91505092915050565b600073ffffffffffffffffffffffffffffffffffffffff82169050919050565b600061435b82614330565b9050919050565b61436b81614350565b82525050565b60006020820190506143866000830184614362565b92915050565b61439581614350565b81146143a057600080fd5b50565b6000813590506143b28161438c565b92915050565b600080604083850312156143cf576143ce614156565b5b60006143dd858286016143a3565b92505060206143ee858286016142ee565b9150509250929050565b614401816142cd565b82525050565b600060c08201905061441c6000830189614362565b61442960208301886143f8565b61443660408301876143f8565b61444360608301866143f8565b61445060808301856143f8565b61445d60a08301846141f1565b979650505050505050565b60008060006060848603121561448157614480614156565b5b600061448f868287016143a3565b93505060206144a0868287016143a3565b92505060406144b1868287016142ee565b9150509250925092565b60006020820190506144d060008301846143f8565b92915050565b600080fd5b7f4e487b7100000000000000000000000000000000000000000000000000000000600052604160045260246000fd5b61451382614261565b810181811067ffffffffffffffff82111715614532576145316144db565b5b80604052505050565b600061454561414c565b9050614551828261450a565b919050565b600067ffffffffffffffff821115614571576145706144db565b5b602082029050602081019050919050565b600080fd5b600080fd5b600067ffffffffffffffff8211156145a7576145a66144db565b5b6145b082614261565b9050602081019050919050565b82818337600083830152505050565b60006145df6145da8461458c565b61453b565b9050828152602081018484840111156145fb576145fa614587565b5b6146068482856145bd565b509392505050565b600082601f830112614623576146226144d6565b5b81356146338482602086016145cc565b91505092915050565b600061464f61464a84614556565b61453b565b9050808382526020820190506020840283018581111561467257614671614582565b5b835b818110156146b957803567ffffffffffffffff811115614697576146966144d6565b5b8086016146a4898261460e565b85526020850194505050602081019050614674565b5050509392505050565b600082601f8301126146d8576146d76144d6565b5b81356146e884826020860161463c565b91505092915050565b60008060006060848603121561470a57614709614156565b5b600084013567ffffffffffffffff8111156147285761472761415b565b5b614734868287016146c3565b9350506020614745868287016142ee565b9250506040614756868287016142ee565b9150509250925092565b600081519050919050565b600082825260208201905092915050565b6000819050602082019050919050565b614795816142cd565b82525050565b60006147a7838361478c565b60208301905092915050565b6000602082019050919050565b60006147cb82614760565b6147d5818561476b565b93506147e08361477c565b8060005b838110156148115781516147f8888261479b565b9750614803836147b3565b9250506001810190506147e4565b5085935050505092915050565b6000602082019050818103600083015261483881846147c0565b905092915050565b600060808201905061485560008301876143f8565b61486260208301866143f8565b61486f60408301856143f8565b61487c6060830184614362565b95945050505050565b600081519050919050565b600082825260208201905092915050565b6000819050602082019050919050565b600082825260208201905092915050565b60006148cd8261421b565b6148d781856148b1565b93506148e7818560208601614237565b6148f081614261565b840191505092915050565b600061490783836148c2565b905092915050565b6000602082019050919050565b600061492782614885565b6149318185614890565b935083602082028501614943856148a1565b8060005b8581101561497f578484038952815161496085826148fb565b945061496b8361490f565b925060208a01995050600181019050614947565b50829750879550505050505092915050565b600060208201905081810360008301526149ab818461491c565b905092915050565b6000602082840312156149c9576149c8614156565b5b60006149d7848285016143a3565b91505092915050565b6000819050919050565b6000614a05614a006149fb84614330565b6149e0565b614330565b9050919050565b6000614a17826149ea565b9050919050565b6000614a2982614a0c565b9050919050565b614a3981614a1e565b82525050565b6000602082019050614a546000830184614a30565b92915050565b60006060820190508181036000830152614a7481866147c0565b90508181036020830152614a8881856147c0565b90508181036040830152614a9c81846147c0565b9050949350505050565b60008060408385031215614abd57614abc614156565b5b6000614acb858286016142ee565b9250506020614adc858286016142ee565b9150509250929050565b600080600060608486031215614aff57614afe614156565b5b6000614b0d868287016142ee565b9350506020614b1e868287016142ee565b9250506040614b2f868287016142ee565b9150509250925092565b614b42816141e5565b8114614b4d57600080fd5b50565b600081359050614b5f81614b39565b92915050565b60008060408385031215614b7c57614b7b614156565b5b6000614b8a858286016143a3565b9250506020614b9b85828601614b50565b9150509250929050565b600067ffffffffffffffff821115614bc057614bbf6144db565b5b614bc982614261565b9050602081019050919050565b6000614be9614be484614ba5565b61453b565b905082815260208101848484011115614c0557614c04614587565b5b614c108482856145bd565b509392505050565b600082601f830112614c2d57614c2c6144d6565b5b8135614c3d848260208601614bd6565b91505092915050565b60008060008060808587031215614c6057614c5f614156565b5b6000614c6e878288016143a3565b9450506020614c7f878288016143a3565b9350506040614c90878288016142ee565b925050606085013567ffffffffffffffff811115614cb157614cb061415b565b5b614cbd87828801614c18565b91505092959194509250565b60008060408385031215614ce057614cdf614156565b5b6000614cee858286016143a3565b9250506020614cff858286016143a3565b9150509250929050565b7f4e487b7100000000000000000000000000000000000000000000000000000000600052602260045260246000fd5b60006002820490506001821680614d5057607f821691505b602082108103614d6357614d62614d09565b5b50919050565b7f4f6e6c7920746865206f776e65722063616e2066696e6973682074686520676160008201527f6d626c6500000000000000000000000000000000000000000000000000000000602082015250565b6000614dc5602483614226565b9150614dd082614d69565b604082019050919050565b60006020820190508181036000830152614df481614db8565b9050919050565b7f57696e6e696e672063686f696365206e6f74206465636c617265640000000000600082015250565b6000614e31601b83614226565b9150614e3c82614dfb565b602082019050919050565b60006020820190508181036000830152614e6081614e24565b9050919050565b7f47616d626c652069732066696e69736865640000000000000000000000000000600082015250565b6000614e9d601283614226565b9150614ea882614e67565b602082019050919050565b60006020820190508181036000830152614ecc81614e90565b9050919050565b7f4e487b7100000000000000000000000000000000000000000000000000000000600052603260045260246000fd5b7f4e487b7100000000000000000000000000000000000000000000000000000000600052601160045260246000fd5b6000614f3c826142cd565b91507fffffffffffffffffffffffffffffffffffffffffffffffffffffffffffffffff8203614f6e57614f6d614f02565b5b600182019050919050565b7f4e487b7100000000000000000000000000000000000000000000000000000000600052601260045260246000fd5b6000614fb3826142cd565b9150614fbe836142cd565b925082614fce57614fcd614f79565b5b828204905092915050565b7f496e76616c696420626574206f776e6572000000000000000000000000000000600082015250565b600061500f601183614226565b915061501a82614fd9565b602082019050919050565b6000602082019050818103600083015261503e81615002565b9050919050565b600060408201905061505a6000830185614362565b61506760208301846143f8565b9392505050565b60008151905061507d81614b39565b92915050565b60006020828403121561509957615098614156565b5b60006150a78482850161506e565b91505092915050565b60006060820190506150c560008301866143f8565b6150d260208301856143f8565b6150df6040830184614362565b949350505050565b60006060820190506150fc6000830186614362565b61510960208301856143f8565b6151166040830184614362565b949350505050565b7f4174206c656173742074776f2063686f69636573207265717569726564000000600082015250565b6000615154601d83614226565b915061515f8261511e565b602082019050919050565b6000602082019050818103600083015261518381615147565b9050919050565b7f546f74616c207072697a65206d7573742062652067726561746572207468616e60008201527f207a65726f000000000000000000000000000000000000000000000000000000602082015250565b60006151e6602583614226565b91506151f18261518a565b604082019050919050565b60006020820190508181036000830152615215816151d9565b9050919050565b7f446561646c696e65206d75737420626520696e20746865206675747572650000600082015250565b6000615252601e83614226565b915061525d8261521c565b602082019050919050565b6000602082019050818103600083015261528181615245565b9050919050565b600060608201905061529d6000830186614362565b6152aa6020830185614362565b6152b760408301846143f8565b949350505050565b7f4661696c656420746f207472616e73666572207072697a652066756e64730000600082015250565b60006152f5601e83614226565b9150615300826152bf565b602082019050919050565b60006020820190508181036000830152615324816152e8565b9050919050565b600060608201905061534060008301866143f8565b8181036020830152615352818561491c565b90506153616040830184614362565b949350505050565b6000615374826142cd565b915061537f836142cd565b925082820190508082111561539757615396614f02565b5b92915050565b7f426574206973206e6f74206c697374656420666f722073616c65000000000000600082015250565b60006153d3601a83614226565b91506153de8261539d565b602082019050919050565b60006020820190508181036000830152615402816153c6565b9050919050565b7f4f6e6c7920746865206f776e65722063616e2063616e63656c20746865206c6960008201527f7374696e67000000000000000000000000000000000000000000000000000000602082015250565b6000615465602583614226565b915061547082615409565b604082019050919050565b6000602082019050818103600083015261549481615458565b9050919050565b60006040820190506154b060008301856143f8565b6154bd6020830184614362565b9392505050565b7f546f6b656e20646f6573206e6f74206578697374000000000000000000000000600082015250565b60006154fa601483614226565b9150615505826154c4565b602082019050919050565b60006020820190508181036000830152615529816154ed565b9050919050565b7f4f6e6c7920746865206f776e65722063616e206c697374207468652062657400600082015250565b6000615566601f83614226565b915061557182615530565b602082019050919050565b6000602082019050818103600083015261559581615559565b9050919050565b7f5072696365206d7573742062652067726561746572207468616e207a65726f00600082015250565b60006155d2601f83614226565b91506155dd8261559c565b602082019050919050565b60006020820190508181036000830152615601816155c5565b9050919050565b600081905092915050565b600061561e8261421b565b6156288185615608565b9350615638818560208601614237565b80840191505092915050565b60006156508285615613565b915061565c8284615613565b91508190509392505050565b7f4f6e6c7920746865206f776e65722063616e206465636c61726520612072657360008201527f756c740000000000000000000000000000000000000000000000000000000000602082015250565b60006156c4602383614226565b91506156cf82615668565b604082019050919050565b600060208201905081810360008301526156f3816156b7565b9050919050565b7f496e76616c69642063686f696365000000000000000000000000000000000000600082015250565b6000615730600e83614226565b915061573b826156fa565b602082019050919050565b6000602082019050818103600083015261575f81615723565b9050919050565b7f47616d626c652068617320616c72656164792066696e69736865640000000000600082015250565b600061579c601b83614226565b91506157a782615766565b602082019050919050565b600060208201905081810360008301526157cb8161578f565b9050919050565b60006040820190506157e760008301856143f8565b6157f460208301846143f8565b9392505050565b7f47616d626c6520646f6573206e6f742065786973740000000000000000000000600082015250565b6000615831601583614226565b915061583c826157fb565b602082019050919050565b6000602082019050818103600083015261586081615824565b9050919050565b7f47616d626c65206973206f766572000000000000000000000000000000000000600082015250565b600061589d600e83614226565b91506158a882615867565b602082019050919050565b600060208201905081810360008301526158cc81615890565b9050919050565b7f426574207072696365206d7573742062652067726561746572207468616e207a60008201527f65726f0000000000000000000000000000000000000000000000000000000000602082015250565b600061592f602383614226565b915061593a826158d3565b604082019050919050565b6000602082019050818103600083015261595e81615922565b9050919050565b7f5472616e73666572206661696c65643a20696e73756666696369656e7420616c60008201527f6c6f77616e6365206f722062616c616e63650000000000000000000000000000602082015250565b60006159c1603283614226565b91506159cc82615965565b604082019050919050565b600060208201905081810360008301526159f0816159b4565b9050919050565b60006040820190508181036000830152615a118185614272565b9050615a2060208301846143f8565b9392505050565b60006040820190508181036000830152615a418185614272565b9050615a506020830184614362565b9392505050565b600081519050919050565b600082825260208201905092915050565b6000615a7e82615a57565b615a888185615a62565b9350615a98818560208601614237565b615aa181614261565b840191505092915050565b6000608082019050615ac16000830187614362565b615ace6020830186614362565b615adb60408301856143f8565b8181036060830152615aed8184615a73565b905095945050505050565b600081519050615b078161418c565b92915050565b600060208284031215615b2357615b22614156565b5b6000615b3184828501615af8565b91505092915050565b6000615b45826142cd565b9150615b50836142cd565b9250828203905081811115615b6857615b67614f02565b5b92915050565b7f4e487b7100000000000000000000000000000000000000000000000000000000600052603160045260246000fd5b60008190508160005260206000209050919050565b60006020601f8301049050919050565b600082821b905092915050565b600060088302615bff7fffffffffffffffffffffffffffffffffffffffffffffffffffffffffffffffff82615bc2565b615c098683615bc2565b95508019841693508086168417925050509392505050565b6000615c3c615c37615c32846142cd565b6149e0565b6142cd565b9050919050565b6000819050919050565b615c5683615c21565b615c6a615c6282615c43565b848454615bcf565b825550505050565b600090565b615c7f615c72565b615c8a818484615c4d565b505050565b5b81811015615cae57615ca3600082615c77565b600181019050615c90565b5050565b601f821115615cf357615cc481615b9d565b615ccd84615bb2565b81016020851015615cdc578190505b615cf0615ce885615bb2565b830182615c8f565b50505b505050565b600082821c905092915050565b6000615d1660001984600802615cf8565b1980831691505092915050565b6000615d2f8383615d05565b9150826002028217905092915050565b615d488261421b565b67ffffffffffffffff811115615d6157615d606144db565b5b615d6b8254614d38565b615d76828285615cb2565b600060209050601f831160018114615da95760008415615d97578287015190505b615da18582615d23565b865550615e09565b601f198416615db786615b9d565b60005b82811015615ddf57848901518255600182019150602085019450602081019050615dba565b86831015615dfc5784890151615df8601f891682615d05565b8355505b6001600288020188555050505b505050505050565b7f4e487b7100000000000000000000000000000000000000000000000000000000600052605160045260246000fdfea26469706673582212207684cd4de95348bcbcf20ec3d41a57a1b48d6d2f1a0efb1940f708ea58f5bd8d64736f6c63430008140033",
  "linkReferences": {},
  "deployedLinkReferences": {}
}