{
  "_format": "hh-sol-artifact-1",
  "contractName": "EasyBet",
  "sourceName": "contracts/EasyBet.sol",
  "abi": [
    {
      "inputs": [
        {
          "internalType": "address",
          "name": "sender",
          "type": "address"
        },
        {
          "internalType": "uint256",
          "name": "tokenId",
          "type": "uint256"
        },
        {
          "internalType": "address",
          "name": "owner",
          "type": "address"
        }
      ],
      "name": "ERC721IncorrectOwner",
      "type": "error"
    },
    {
      "inputs": [
        {
          "internalType": "address",
          "name": "operator",
          "type": "address"
        },
        {
          "internalType": "uint256",
          "name": "tokenId",
          "type": "uint256"
        }
      ],
      "name": "ERC721InsufficientApproval",
      "type": "error"
    },
    {
      "inputs": [
        {
          "internalType": "address",
          "name": "approver",
          "type": "address"
        }
      ],
      "name": "ERC721InvalidApprover",
      "type": "error"
    },
    {
      "inputs": [
        {
          "internalType": "address",
          "name": "operator",
          "type": "address"
        }
      ],
      "name": "ERC721InvalidOperator",
      "type": "error"
    },
    {
      "inputs": [
        {
          "internalType": "address",
          "name": "owner",
          "type": "address"
        }
      ],
      "name": "ERC721InvalidOwner",
      "type": "error"
    },
    {
      "inputs": [
        {
          "internalType": "address",
          "name": "receiver",
          "type": "address"
        }
      ],
      "name": "ERC721InvalidReceiver",
      "type": "error"
    },
    {
      "inputs": [
        {
          "internalType": "address",
          "name": "sender",
          "type": "address"
        }
      ],
      "name": "ERC721InvalidSender",
      "type": "error"
    },
    {
      "inputs": [
        {
          "internalType": "uint256",
          "name": "tokenId",
          "type": "uint256"
        }
      ],
      "name": "ERC721NonexistentToken",
      "type": "error"
    },
    {
      "anonymous": false,
      "inputs": [
        {
          "indexed": true,
          "internalType": "address",
          "name": "owner",
          "type": "address"
        },
        {
          "indexed": true,
          "internalType": "address",
          "name": "approved",
          "type": "address"
        },
        {
          "indexed": true,
          "internalType": "uint256",
          "name": "tokenId",
          "type": "uint256"
        }
      ],
      "name": "Approval",
      "type": "event"
    },
    {
      "anonymous": false,
      "inputs": [
        {
          "indexed": true,
          "internalType": "address",
          "name": "owner",
          "type": "address"
        },
        {
          "indexed": true,
          "internalType": "address",
          "name": "operator",
          "type": "address"
        },
        {
          "indexed": false,
          "internalType": "bool",
          "name": "approved",
          "type": "bool"
        }
      ],
      "name": "ApprovalForAll",
      "type": "event"
    },
    {
      "anonymous": false,
      "inputs": [
        {
          "indexed": false,
          "internalType": "uint256",
          "name": "betId",
          "type": "uint256"
        },
        {
          "indexed": false,
          "internalType": "uint256",
          "name": "price",
          "type": "uint256"
        },
        {
          "indexed": false,
          "internalType": "address",
          "name": "owner",
          "type": "address"
        }
      ],
      "name": "BetListed",
      "type": "event"
    },
    {
      "anonymous": false,
      "inputs": [
        {
          "indexed": false,
          "internalType": "uint256",
          "name": "betId",
          "type": "uint256"
        },
        {
          "indexed": false,
          "internalType": "address",
          "name": "owner",
          "type": "address"
        }
      ],
      "name": "BetListingCancelled",
      "type": "event"
    },
    {
      "anonymous": false,
      "inputs": [
        {
          "indexed": false,
          "internalType": "uint256",
          "name": "betId",
          "type": "uint256"
        },
        {
          "indexed": false,
          "internalType": "uint256",
          "name": "price",
          "type": "uint256"
        },
        {
          "indexed": false,
          "internalType": "address",
          "name": "owner",
          "type": "address"
        }
      ],
      "name": "BetPlaced",
      "type": "event"
    },
    {
      "anonymous": false,
      "inputs": [
        {
          "indexed": false,
          "internalType": "uint256",
          "name": "betId",
          "type": "uint256"
        },
        {
          "indexed": false,
          "internalType": "uint256",
          "name": "price",
          "type": "uint256"
        },
        {
          "indexed": false,
          "internalType": "address",
          "name": "buyer",
          "type": "address"
        }
      ],
      "name": "BetSold",
      "type": "event"
    },
    {
      "anonymous": false,
      "inputs": [
        {
          "indexed": false,
          "internalType": "uint256",
          "name": "gambleId",
          "type": "uint256"
        },
        {
          "indexed": false,
          "internalType": "string[]",
          "name": "choices",
          "type": "string[]"
        },
        {
          "indexed": false,
          "internalType": "address",
          "name": "owner",
          "type": "address"
        }
      ],
      "name": "GambleCreated",
      "type": "event"
    },
    {
      "anonymous": false,
      "inputs": [
        {
          "indexed": false,
          "internalType": "uint256",
          "name": "gambleId",
          "type": "uint256"
        }
      ],
      "name": "GambleFinished",
      "type": "event"
    },
    {
      "anonymous": false,
      "inputs": [
        {
          "indexed": false,
          "internalType": "uint256",
          "name": "gambleId",
          "type": "uint256"
        },
        {
          "indexed": false,
          "internalType": "uint256",
          "name": "winningChoice",
          "type": "uint256"
        }
      ],
      "name": "GambleResultDeclared",
      "type": "event"
    },
    {
      "anonymous": false,
      "inputs": [
        {
          "indexed": false,
          "internalType": "uint256",
          "name": "betId",
          "type": "uint256"
        },
        {
          "indexed": false,
          "internalType": "uint256",
          "name": "prizeAmount",
          "type": "uint256"
        },
        {
          "indexed": false,
          "internalType": "address",
          "name": "claimer",
          "type": "address"
        }
      ],
      "name": "PrizeClaimed",
      "type": "event"
    },
    {
      "anonymous": false,
      "inputs": [
        {
          "indexed": true,
          "internalType": "address",
          "name": "from",
          "type": "address"
        },
        {
          "indexed": true,
          "internalType": "address",
          "name": "to",
          "type": "address"
        },
        {
          "indexed": true,
          "internalType": "uint256",
          "name": "tokenId",
          "type": "uint256"
        }
      ],
      "name": "Transfer",
      "type": "event"
    },
    {
      "inputs": [
        {
          "internalType": "address",
          "name": "to",
          "type": "address"
        },
        {
          "internalType": "uint256",
          "name": "tokenId",
          "type": "uint256"
        }
      ],
      "name": "approve",
      "outputs": [],
      "stateMutability": "nonpayable",
      "type": "function"
    },
    {
      "inputs": [
        {
          "internalType": "address",
          "name": "owner",
          "type": "address"
        }
      ],
      "name": "balanceOf",
      "outputs": [
        {
          "internalType": "uint256",
          "name": "",
          "type": "uint256"
        }
      ],
      "stateMutability": "view",
      "type": "function"
    },
    {
      "inputs": [],
      "name": "betCount",
      "outputs": [
        {
          "internalType": "uint256",
          "name": "",
          "type": "uint256"
        }
      ],
      "stateMutability": "view",
      "type": "function"
    },
    {
      "inputs": [
        {
          "internalType": "uint256",
          "name": "",
          "type": "uint256"
        }
      ],
      "name": "betListings",
      "outputs": [
        {
          "internalType": "uint256",
          "name": "tokenId",
          "type": "uint256"
        },
        {
          "internalType": "uint256",
          "name": "listedTimestamp",
          "type": "uint256"
        },
        {
          "internalType": "uint256",
          "name": "price",
          "type": "uint256"
        },
        {
          "internalType": "address",
          "name": "owner",
          "type": "address"
        }
      ],
      "stateMutability": "view",
      "type": "function"
    },
    {
      "inputs": [
        {
          "internalType": "uint256",
          "name": "",
          "type": "uint256"
        }
      ],
      "name": "bets",
      "outputs": [
        {
          "internalType": "address",
          "name": "owner",
          "type": "address"
        },
        {
          "internalType": "uint256",
          "name": "listedTimestamp",
          "type": "uint256"
        },
        {
          "internalType": "uint256",
          "name": "gambleId",
          "type": "uint256"
        },
        {
          "internalType": "uint256",
          "name": "betAmount",
          "type": "uint256"
        },
        {
          "internalType": "uint256",
          "name": "betChoice",
          "type": "uint256"
        },
        {
          "internalType": "bool",
          "name": "isListed",
          "type": "bool"
        }
      ],
      "stateMutability": "view",
      "type": "function"
    },
    {
      "inputs": [
        {
          "internalType": "uint256",
          "name": "tokenId",
          "type": "uint256"
        }
      ],
      "name": "buyABet",
      "outputs": [],
      "stateMutability": "nonpayable",
      "type": "function"
    },
    {
      "inputs": [
        {
          "internalType": "uint256",
          "name": "tokenId",
          "type": "uint256"
        }
      ],
      "name": "cancelABetListing",
      "outputs": [],
      "stateMutability": "nonpayable",
      "type": "function"
    },
    {
      "inputs": [
        {
          "internalType": "string[]",
          "name": "choices",
          "type": "string[]"
        },
        {
          "internalType": "uint256",
          "name": "totalPrize",
          "type": "uint256"
        },
        {
          "internalType": "uint256",
          "name": "deadline",
          "type": "uint256"
        }
      ],
      "name": "createAGamble",
      "outputs": [],
      "stateMutability": "nonpayable",
      "type": "function"
    },
    {
      "inputs": [
        {
          "internalType": "uint256",
          "name": "gambleId",
          "type": "uint256"
        },
        {
          "internalType": "uint256",
          "name": "choice",
          "type": "uint256"
        }
      ],
      "name": "declareAGambleResult",
      "outputs": [],
      "stateMutability": "nonpayable",
      "type": "function"
    },
    {
      "inputs": [],
      "name": "easyToken",
      "outputs": [
        {
          "internalType": "contract EasyToken",
          "name": "",
          "type": "address"
        }
      ],
      "stateMutability": "view",
      "type": "function"
    },
    {
      "inputs": [
        {
          "internalType": "uint256",
          "name": "gambleId",
          "type": "uint256"
        }
      ],
      "name": "finishAGamble",
      "outputs": [],
      "stateMutability": "nonpayable",
      "type": "function"
    },
    {
      "inputs": [],
      "name": "gambleCount",
      "outputs": [
        {
          "internalType": "uint256",
          "name": "",
          "type": "uint256"
        }
      ],
      "stateMutability": "view",
      "type": "function"
    },
    {
      "inputs": [
        {
          "internalType": "uint256",
          "name": "",
          "type": "uint256"
        }
      ],
      "name": "gambles",
      "outputs": [
        {
          "internalType": "address",
          "name": "owner",
          "type": "address"
        },
        {
          "internalType": "uint256",
          "name": "listedTimestamp",
          "type": "uint256"
        },
        {
          "internalType": "uint256",
          "name": "deadline",
          "type": "uint256"
        },
        {
          "internalType": "uint256",
          "name": "totalPrize",
          "type": "uint256"
        },
        {
          "internalType": "uint256",
          "name": "winningChoice",
          "type": "uint256"
        },
        {
          "internalType": "bool",
          "name": "finished",
          "type": "bool"
        }
      ],
      "stateMutability": "view",
      "type": "function"
    },
    {
      "inputs": [
        {
          "internalType": "uint256",
          "name": "tokenId",
          "type": "uint256"
        }
      ],
      "name": "getApproved",
      "outputs": [
        {
          "internalType": "address",
          "name": "",
          "type": "address"
        }
      ],
      "stateMutability": "view",
      "type": "function"
    },
    {
      "inputs": [
        {
          "internalType": "uint256",
          "name": "gambleId",
          "type": "uint256"
        }
      ],
      "name": "getGambleBetIds",
      "outputs": [
        {
          "internalType": "uint256[]",
          "name": "",
          "type": "uint256[]"
        }
      ],
      "stateMutability": "view",
      "type": "function"
    },
    {
      "inputs": [
        {
          "internalType": "uint256",
          "name": "gambleId",
          "type": "uint256"
        }
      ],
      "name": "getGambleChoices",
      "outputs": [
        {
          "internalType": "string[]",
          "name": "",
          "type": "string[]"
        }
      ],
      "stateMutability": "view",
      "type": "function"
    },
    {
      "inputs": [
        {
          "internalType": "uint256",
          "name": "gambleId",
          "type": "uint256"
        }
      ],
      "name": "getOrderBookForGamble",
      "outputs": [
        {
          "internalType": "uint256[]",
          "name": "prices",
          "type": "uint256[]"
        },
        {
          "internalType": "uint256[]",
          "name": "choiceIds",
          "type": "uint256[]"
        },
        {
          "internalType": "uint256[]",
          "name": "betIds",
          "type": "uint256[]"
        }
      ],
      "stateMutability": "view",
      "type": "function"
    },
    {
      "inputs": [
        {
          "internalType": "address",
          "name": "_easyTokenAddress",
          "type": "address"
        }
      ],
      "name": "initialize",
      "outputs": [],
      "stateMutability": "nonpayable",
      "type": "function"
    },
    {
      "inputs": [
        {
          "internalType": "address",
          "name": "owner",
          "type": "address"
        },
        {
          "internalType": "address",
          "name": "operator",
          "type": "address"
        }
      ],
      "name": "isApprovedForAll",
      "outputs": [
        {
          "internalType": "bool",
          "name": "",
          "type": "bool"
        }
      ],
      "stateMutability": "view",
      "type": "function"
    },
    {
      "inputs": [
        {
          "internalType": "uint256",
          "name": "betId",
          "type": "uint256"
        },
        {
          "internalType": "uint256",
          "name": "price",
          "type": "uint256"
        }
      ],
      "name": "listABet",
      "outputs": [],
      "stateMutability": "nonpayable",
      "type": "function"
    },
    {
      "inputs": [],
      "name": "name",
      "outputs": [
        {
          "internalType": "string",
          "name": "",
          "type": "string"
        }
      ],
      "stateMutability": "view",
      "type": "function"
    },
    {
      "inputs": [
        {
          "internalType": "uint256",
          "name": "",
          "type": "uint256"
        },
        {
          "internalType": "uint256",
          "name": "",
          "type": "uint256"
        },
        {
          "internalType": "uint256",
          "name": "",
          "type": "uint256"
        }
      ],
      "name": "orderBook",
      "outputs": [
        {
          "internalType": "uint256",
          "name": "tokenId",
          "type": "uint256"
        },
        {
          "internalType": "uint256",
          "name": "listedTimestamp",
          "type": "uint256"
        },
        {
          "internalType": "uint256",
          "name": "price",
          "type": "uint256"
        },
        {
          "internalType": "address",
          "name": "owner",
          "type": "address"
        }
      ],
      "stateMutability": "view",
      "type": "function"
    },
    {
      "inputs": [
        {
          "internalType": "uint256",
          "name": "tokenId",
          "type": "uint256"
        }
      ],
      "name": "ownerOf",
      "outputs": [
        {
          "internalType": "address",
          "name": "",
          "type": "address"
        }
      ],
      "stateMutability": "view",
      "type": "function"
    },
    {
      "inputs": [
        {
          "internalType": "uint256",
          "name": "gambleId",
          "type": "uint256"
        },
        {
          "internalType": "uint256",
          "name": "price",
          "type": "uint256"
        },
        {
          "internalType": "uint256",
          "name": "choice",
          "type": "uint256"
        }
      ],
      "name": "placeABet",
      "outputs": [],
      "stateMutability": "nonpayable",
      "type": "function"
    },
    {
      "inputs": [
        {
          "internalType": "uint256",
          "name": "",
          "type": "uint256"
        },
        {
          "internalType": "uint256",
          "name": "",
          "type": "uint256"
        }
      ],
      "name": "priceLevelExists",
      "outputs": [
        {
          "internalType": "bool",
          "name": "",
          "type": "bool"
        }
      ],
      "stateMutability": "view",
      "type": "function"
    },
    {
      "inputs": [
        {
          "internalType": "uint256",
          "name": "",
          "type": "uint256"
        },
        {
          "internalType": "uint256",
          "name": "",
          "type": "uint256"
        }
      ],
      "name": "priceLevels",
      "outputs": [
        {
          "internalType": "uint256",
          "name": "",
          "type": "uint256"
        }
      ],
      "stateMutability": "view",
      "type": "function"
    },
    {
      "inputs": [
        {
          "internalType": "address",
          "name": "from",
          "type": "address"
        },
        {
          "internalType": "address",
          "name": "to",
          "type": "address"
        },
        {
          "internalType": "uint256",
          "name": "tokenId",
          "type": "uint256"
        }
      ],
      "name": "safeTransferFrom",
      "outputs": [],
      "stateMutability": "nonpayable",
      "type": "function"
    },
    {
      "inputs": [
        {
          "internalType": "address",
          "name": "from",
          "type": "address"
        },
        {
          "internalType": "address",
          "name": "to",
          "type": "address"
        },
        {
          "internalType": "uint256",
          "name": "tokenId",
          "type": "uint256"
        },
        {
          "internalType": "bytes",
          "name": "data",
          "type": "bytes"
        }
      ],
      "name": "safeTransferFrom",
      "outputs": [],
      "stateMutability": "nonpayable",
      "type": "function"
    },
    {
      "inputs": [
        {
          "internalType": "address",
          "name": "operator",
          "type": "address"
        },
        {
          "internalType": "bool",
          "name": "approved",
          "type": "bool"
        }
      ],
      "name": "setApprovalForAll",
      "outputs": [],
      "stateMutability": "nonpayable",
      "type": "function"
    },
    {
      "inputs": [
        {
          "internalType": "bytes4",
          "name": "interfaceId",
          "type": "bytes4"
        }
      ],
      "name": "supportsInterface",
      "outputs": [
        {
          "internalType": "bool",
          "name": "",
          "type": "bool"
        }
      ],
      "stateMutability": "view",
      "type": "function"
    },
    {
      "inputs": [],
      "name": "symbol",
      "outputs": [
        {
          "internalType": "string",
          "name": "",
          "type": "string"
        }
      ],
      "stateMutability": "view",
      "type": "function"
    },
    {
      "inputs": [
        {
          "internalType": "uint256",
          "name": "tokenId",
          "type": "uint256"
        }
      ],
      "name": "tokenURI",
      "outputs": [
        {
          "internalType": "string",
          "name": "",
          "type": "string"
        }
      ],
      "stateMutability": "view",
      "type": "function"
    },
    {
      "inputs": [
        {
          "internalType": "address",
          "name": "from",
          "type": "address"
        },
        {
          "internalType": "address",
          "name": "to",
          "type": "address"
        },
        {
          "internalType": "uint256",
          "name": "tokenId",
          "type": "uint256"
        }
      ],
      "name": "transferFrom",
      "outputs": [],
      "stateMutability": "nonpayable",
      "type": "function"
    }
  ],
  "bytecode": "0x60806040523480156200001157600080fd5b506040518060400160405280600781526020017f45617379426574000000000000000000000000000000000000000000000000008152506040518060400160405280600381526020017f454254000000000000000000000000000000000000000000000000000000000081525081600090816200008f919062000324565b508060019081620000a1919062000324565b5050506200040b565b600081519050919050565b7f4e487b7100000000000000000000000000000000000000000000000000000000600052604160045260246000fd5b7f4e487b7100000000000000000000000000000000000000000000000000000000600052602260045260246000fd5b600060028204905060018216806200012c57607f821691505b602082108103620001425762000141620000e4565b5b50919050565b60008190508160005260206000209050919050565b60006020601f8301049050919050565b600082821b905092915050565b600060088302620001ac7fffffffffffffffffffffffffffffffffffffffffffffffffffffffffffffffff826200016d565b620001b886836200016d565b95508019841693508086168417925050509392505050565b6000819050919050565b6000819050919050565b600062000205620001ff620001f984620001d0565b620001da565b620001d0565b9050919050565b6000819050919050565b6200022183620001e4565b6200023962000230826200020c565b8484546200017a565b825550505050565b600090565b6200025062000241565b6200025d81848462000216565b505050565b5b8181101562000285576200027960008262000246565b60018101905062000263565b5050565b601f821115620002d4576200029e8162000148565b620002a9846200015d565b81016020851015620002b9578190505b620002d1620002c8856200015d565b83018262000262565b50505b505050565b600082821c905092915050565b6000620002f960001984600802620002d9565b1980831691505092915050565b6000620003148383620002e6565b9150826002028217905092915050565b6200032f82620000aa565b67ffffffffffffffff8111156200034b576200034a620000b5565b5b62000357825462000113565b6200036482828562000289565b600060209050601f8311600181146200039c576000841562000387578287015190505b62000393858262000306565b86555062000403565b601f198416620003ac8662000148565b60005b82811015620003d657848901518255600182019150602085019450602081019050620003af565b86831015620003f65784890151620003f2601f891682620002e6565b8355505b6001600288020188555050505b505050505050565b615b20806200041b6000396000f3fe608060405234801561001057600080fd5b50600436106101fb5760003560e01c80637b76e40b1161011a578063b88d4fde116100ad578063c937de041161007c578063c937de0414610642578063cf0944971461065e578063e6124f2b1461067c578063e985e9c514610698578063ee9891f1146106c8576101fb565b8063b88d4fde146105a5578063c1e77c4a146105c1578063c4d66de8146105f6578063c87b56dd14610612576101fb565b80639ce54999116100e95780639ce549991461051e5780639f381f6f1461053a578063a22cb4651461056d578063a649503d14610589576101fb565b80637b76e40b1461046e57806386ceb2ba146104a05780639454b5dd146104d057806395d89b4114610500576101fb565b806341203f1e1161019257806361115ced1161016157806361115ced146103c05780636352211e146103f057806370a0823114610420578063740513ea14610450576101fb565b806341203f1e1461032557806342842e0e14610341578063491a38d41461035d57806354ff3fc41461038d576101fb565b80630ed52aff116101ce5780630ed52aff1461029a57806322af00fa146102b657806323b872dd146102eb5780633f25de8314610307576101fb565b806301ffc9a71461020057806306fdde0314610230578063081812fc1461024e578063095ea7b31461027e575b600080fd5b61021a60048036038101906102159190613f5d565b6106e4565b6040516102279190613fa5565b60405180910390f35b6102386107c6565b6040516102459190614050565b60405180910390f35b610268600480360381019061026391906140a8565b610858565b6040516102759190614116565b60405180910390f35b6102986004803603810190610293919061415d565b610874565b005b6102b460048036038101906102af91906140a8565b61088a565b005b6102d060048036038101906102cb91906140a8565b610d4c565b6040516102e2969594939291906141ac565b60405180910390f35b6103056004803603810190610300919061420d565b610db5565b005b61030f610eb7565b60405161031c9190614260565b60405180910390f35b61033f600480360381019061033a9190614496565b610ebd565b005b61035b6004803603810190610356919061420d565b611265565b005b610377600480360381019061037291906140a8565b611285565b60405161038491906145c3565b60405180910390f35b6103a760048036038101906103a291906140a8565b6112f3565b6040516103b794939291906145e5565b60405180910390f35b6103da60048036038101906103d591906140a8565b611343565b6040516103e79190614736565b60405180910390f35b61040a600480360381019061040591906140a8565b611432565b6040516104179190614116565b60405180910390f35b61043a60048036038101906104359190614758565b611444565b6040516104479190614260565b60405180910390f35b6104586114fe565b60405161046591906147e4565b60405180910390f35b610488600480360381019061048391906140a8565b611524565b604051610497939291906147ff565b60405180910390f35b6104ba60048036038101906104b5919061484b565b611876565b6040516104c79190614260565b60405180910390f35b6104ea60048036038101906104e5919061484b565b6118a7565b6040516104f79190613fa5565b60405180910390f35b6105086118d6565b6040516105159190614050565b60405180910390f35b610538600480360381019061053391906140a8565b611968565b005b610554600480360381019061054f919061488b565b611b65565b60405161056494939291906145e5565b60405180910390f35b6105876004803603810190610582919061490a565b611bdf565b005b6105a3600480360381019061059e919061484b565b611bf5565b005b6105bf60048036038101906105ba91906149eb565b611ffc565b005b6105db60048036038101906105d691906140a8565b612019565b6040516105ed969594939291906141ac565b60405180910390f35b610610600480360381019061060b9190614758565b612082565b005b61062c600480360381019061062791906140a8565b6120c6565b6040516106399190614050565b60405180910390f35b61065c6004803603810190610657919061484b565b61212f565b005b6106666122ba565b6040516106739190614260565b60405180910390f35b6106966004803603810190610691919061488b565b6122c0565b005b6106b260048036038101906106ad9190614a6e565b6126fc565b6040516106bf9190613fa5565b60405180910390f35b6106e260048036038101906106dd91906140a8565b612790565b005b60007f80ac58cd000000000000000000000000000000000000000000000000000000007bffffffffffffffffffffffffffffffffffffffffffffffffffffffff1916827bffffffffffffffffffffffffffffffffffffffffffffffffffffffff191614806107af57507f5b5e139f000000000000000000000000000000000000000000000000000000007bffffffffffffffffffffffffffffffffffffffffffffffffffffffff1916827bffffffffffffffffffffffffffffffffffffffffffffffffffffffff1916145b806107bf57506107be82612b1a565b5b9050919050565b6060600080546107d590614add565b80601f016020809104026020016040519081016040528092919081815260200182805461080190614add565b801561084e5780601f106108235761010080835404028352916020019161084e565b820191906000526020600020905b81548152906001019060200180831161083157829003601f168201915b5050505050905090565b600061086382612b84565b5061086d82612c0c565b9050919050565b6108868282610881612c49565b612c51565b5050565b6000600a600083815260200190815260200160002090503373ffffffffffffffffffffffffffffffffffffffff168160000160009054906101000a900473ffffffffffffffffffffffffffffffffffffffff1673ffffffffffffffffffffffffffffffffffffffff1614610933576040517f08c379a000000000000000000000000000000000000000000000000000000000815260040161092a90614b80565b60405180910390fd5b7fffffffffffffffffffffffffffffffffffffffffffffffffffffffffffffffff816006015403610999576040517f08c379a000000000000000000000000000000000000000000000000000000000815260040161099090614bec565b60405180910390fd5b8060070160009054906101000a900460ff16156109eb576040517f08c379a00000000000000000000000000000000000000000000000000000000081526004016109e290614c58565b60405180910390fd5b60018160070160006101000a81548160ff0219169083151502179055506000805b8260050180549050811015610a8a576000836005018281548110610a3357610a32614c78565b5b906000526020600020015490506000600b600083815260200190815260200160002090508460060154816004015403610a75578380610a7190614cd6565b9450505b50508080610a8290614cd6565b915050610a0c565b506000811115610c46576000818360030154610aa69190614d4d565b905060005b8360050180549050811015610c3f576000846005018281548110610ad257610ad1614c78565b5b906000526020600020015490506000600b600083815260200190815260200160002090508560060154816004015403610c2a57600660009054906101000a900473ffffffffffffffffffffffffffffffffffffffff1673ffffffffffffffffffffffffffffffffffffffff1663a9059cbb8260000160009054906101000a900473ffffffffffffffffffffffffffffffffffffffff16866040518363ffffffff1660e01b8152600401610b86929190614d7e565b6020604051808303816000875af1158015610ba5573d6000803e3d6000fd5b505050506040513d601f19601f82011682018060405250810190610bc99190614dbc565b507fd29f668627eed111ef23a47210867697c0b3b07fd1d5b9cfe9c8e02823b749ea82858360000160009054906101000a900473ffffffffffffffffffffffffffffffffffffffff16604051610c2193929190614de9565b60405180910390a15b50508080610c3790614cd6565b915050610aab565b5050610d10565b600660009054906101000a900473ffffffffffffffffffffffffffffffffffffffff1673ffffffffffffffffffffffffffffffffffffffff1663a9059cbb8360000160009054906101000a900473ffffffffffffffffffffffffffffffffffffffff1684600301546040518363ffffffff1660e01b8152600401610ccb929190614d7e565b6020604051808303816000875af1158015610cea573d6000803e3d6000fd5b505050506040513d601f19601f82011682018060405250810190610d0e9190614dbc565b505b7ff980f2a2009f13674dec702fff3531645e56f3c5f1d169f90fc5f91da296c87b83604051610d3f9190614260565b60405180910390a1505050565b600b6020528060005260406000206000915090508060000160009054906101000a900473ffffffffffffffffffffffffffffffffffffffff16908060010154908060020154908060030154908060040154908060050160009054906101000a900460ff16905086565b600073ffffffffffffffffffffffffffffffffffffffff168273ffffffffffffffffffffffffffffffffffffffff1603610e275760006040517f64a0ae92000000000000000000000000000000000000000000000000000000008152600401610e1e9190614116565b60405180910390fd5b6000610e3b8383610e36612c49565b612c63565b90508373ffffffffffffffffffffffffffffffffffffffff168173ffffffffffffffffffffffffffffffffffffffff1614610eb1578382826040517f64283d7b000000000000000000000000000000000000000000000000000000008152600401610ea893929190614e20565b60405180910390fd5b50505050565b600d5481565b600283511015610f02576040517f08c379a0000000000000000000000000000000000000000000000000000000008152600401610ef990614ea3565b60405180910390fd5b60008211610f45576040517f08c379a0000000000000000000000000000000000000000000000000000000008152600401610f3c90614f35565b60405180910390fd5b428111610f87576040517f08c379a0000000000000000000000000000000000000000000000000000000008152600401610f7e90614fa1565b60405180910390fd5b6000600660009054906101000a900473ffffffffffffffffffffffffffffffffffffffff1673ffffffffffffffffffffffffffffffffffffffff166323b872dd3330866040518463ffffffff1660e01b8152600401610fe893929190614fc1565b6020604051808303816000875af1158015611007573d6000803e3d6000fd5b505050506040513d601f19601f8201168201806040525081019061102b9190614dbc565b90508061106d576040517f08c379a000000000000000000000000000000000000000000000000000000000815260040161106490615044565b60405180910390fd5b6040518061010001604052803373ffffffffffffffffffffffffffffffffffffffff168152602001428152602001838152602001848152602001858152602001600067ffffffffffffffff8111156110c8576110c7614280565b5b6040519080825280602002602001820160405280156110f65781602001602082028036833780820191505090505b5081526020017fffffffffffffffffffffffffffffffffffffffffffffffffffffffffffffffff815260200160001515815250600a6000600d54815260200190815260200160002060008201518160000160006101000a81548173ffffffffffffffffffffffffffffffffffffffff021916908373ffffffffffffffffffffffffffffffffffffffff16021790555060208201518160010155604082015181600201556060820151816003015560808201518160040190805190602001906111bf929190613dca565b5060a08201518160050190805190602001906111dc929190613e23565b5060c0820151816006015560e08201518160070160006101000a81548160ff0219169083151502179055509050507f545de2572a7163d74e07240b5d4dca936cb954795fe8c9f8cfbc9e4b80fbf96b600d54853360405161123f93929190615064565b60405180910390a1600d600081548092919061125a90614cd6565b919050555050505050565b61128083838360405180602001604052806000815250611ffc565b505050565b6060600a60008381526020019081526020016000206005018054806020026020016040519081016040528092919081815260200182805480156112e757602002820191906000526020600020905b8154815260200190600101908083116112d3575b50505050509050919050565b600c6020528060005260406000206000915090508060000154908060010154908060020154908060030160009054906101000a900473ffffffffffffffffffffffffffffffffffffffff16905084565b6060600a6000838152602001908152602001600020600401805480602002602001604051908101604052809291908181526020016000905b8282101561142757838290600052602060002001805461139a90614add565b80601f01602080910402602001604051908101604052809291908181526020018280546113c690614add565b80156114135780601f106113e857610100808354040283529160200191611413565b820191906000526020600020905b8154815290600101906020018083116113f657829003601f168201915b50505050508152602001906001019061137b565b505050509050919050565b600061143d82612b84565b9050919050565b60008073ffffffffffffffffffffffffffffffffffffffff168273ffffffffffffffffffffffffffffffffffffffff16036114b75760006040517f89c62b640000000000000000000000000000000000000000000000000000000081526004016114ae9190614116565b60405180910390fd5b600360008373ffffffffffffffffffffffffffffffffffffffff1673ffffffffffffffffffffffffffffffffffffffff168152602001908152602001600020549050919050565b600660009054906101000a900473ffffffffffffffffffffffffffffffffffffffff1681565b60608060606000600a600086815260200190815260200160002090506000816004018054905090506000805b60086000898152602001908152602001600020805490508110156115eb576000600860008a8152602001908152602001600020828154811061159557611594614c78565b5b90600052602060002001549050600760008a8152602001908152602001600020600082815260200190815260200160002080549050836115d591906150a2565b92505080806115e390614cd6565b915050611550565b508067ffffffffffffffff81111561160657611605614280565b5b6040519080825280602002602001820160405280156116345781602001602082028036833780820191505090505b5095508067ffffffffffffffff81111561165157611650614280565b5b60405190808252806020026020018201604052801561167f5781602001602082028036833780820191505090505b5094508067ffffffffffffffff81111561169c5761169b614280565b5b6040519080825280602002602001820160405280156116ca5781602001602082028036833780820191505090505b5093506000805b600860008a815260200190815260200160002080549050811015611858576000600860008b8152602001908152602001600020828154811061171657611715614c78565b5b906000526020600020015490506000600760008c81526020019081526020016000206000838152602001908152602001600020905060005b868110156118425760005b828054905081101561182e57600083828154811061177a57611779614c78565b5b906000526020600020906004020160000154905082600b6000838152602001908152602001600020600401540361181a57848d88815181106117bf576117be614c78565b5b602002602001018181525050828c88815181106117df576117de614c78565b5b602002602001018181525050808b88815181106117ff576117fe614c78565b5b602002602001018181525050868061181690614cd6565b9750505b50808061182690614cd6565b915050611759565b50808061183a90614cd6565b91505061174e565b505050808061185090614cd6565b9150506116d1565b508181101561186b578087528086528085525b505050509193909250565b6008602052816000526040600020818154811061189257600080fd5b90600052602060002001600091509150505481565b60096020528160005260406000206020528060005260406000206000915091509054906101000a900460ff1681565b6060600180546118e590614add565b80601f016020809104026020016040519081016040528092919081815260200182805461191190614add565b801561195e5780601f106119335761010080835404028352916020019161195e565b820191906000526020600020905b81548152906001019060200180831161194157829003601f168201915b5050505050905090565b6000600c60008381526020019081526020016000209050600073ffffffffffffffffffffffffffffffffffffffff168160030160009054906101000a900473ffffffffffffffffffffffffffffffffffffffff1673ffffffffffffffffffffffffffffffffffffffff1603611a12576040517f08c379a0000000000000000000000000000000000000000000000000000000008152600401611a0990615122565b60405180910390fd5b3373ffffffffffffffffffffffffffffffffffffffff168160030160009054906101000a900473ffffffffffffffffffffffffffffffffffffffff1673ffffffffffffffffffffffffffffffffffffffff1614611aa4576040517f08c379a0000000000000000000000000000000000000000000000000000000008152600401611a9b906151b4565b60405180910390fd5b6000600b600084815260200190815260200160002060050160006101000a81548160ff021916908315150217905550600c6000838152602001908152602001600020600080820160009055600182016000905560028201600090556003820160006101000a81549073ffffffffffffffffffffffffffffffffffffffff021916905550507fe621e736490070b3f415e6d80ea47d9e0e86f7367ce19dcc925a1da76ff223c88233604051611b599291906151d4565b60405180910390a15050565b60076020528260005260406000206020528160005260406000208181548110611b8d57600080fd5b906000526020600020906004020160009250925050508060000154908060010154908060020154908060030160009054906101000a900473ffffffffffffffffffffffffffffffffffffffff16905084565b611bf1611bea612c49565b8383612e7d565b5050565b600073ffffffffffffffffffffffffffffffffffffffff16611c1683611432565b73ffffffffffffffffffffffffffffffffffffffff1603611c6c576040517f08c379a0000000000000000000000000000000000000000000000000000000008152600401611c6390615249565b60405180910390fd5b3373ffffffffffffffffffffffffffffffffffffffff16611c8c83611432565b73ffffffffffffffffffffffffffffffffffffffff1614611ce2576040517f08c379a0000000000000000000000000000000000000000000000000000000008152600401611cd9906152b5565b60405180910390fd5b60008111611d25576040517f08c379a0000000000000000000000000000000000000000000000000000000008152600401611d1c90615321565b60405180910390fd5b6000600b6000848152602001908152602001600020905060008160020154905060405180608001604052808581526020014281526020018481526020013373ffffffffffffffffffffffffffffffffffffffff16815250600c600086815260200190815260200160002060008201518160000155602082015181600101556040820151816002015560608201518160030160006101000a81548173ffffffffffffffffffffffffffffffffffffffff021916908373ffffffffffffffffffffffffffffffffffffffff1602179055509050506001600b600086815260200190815260200160002060050160006101000a81548160ff021916908315150217905550600760008281526020019081526020016000206000848152602001908152602001600020600c600086815260200190815260200160002090806001815401808255809150506001900390600052602060002090600402016000909190919091506000820154816000015560018201548160010155600282015481600201556003820160009054906101000a900473ffffffffffffffffffffffffffffffffffffffff168160030160006101000a81548173ffffffffffffffffffffffffffffffffffffffff021916908373ffffffffffffffffffffffffffffffffffffffff160217905550505060096000828152602001908152602001600020600084815260200190815260200160002060009054906101000a900460ff16611fbb5760086000828152602001908152602001600020839080600181540180825580915050600190039060005260206000200160009091909190915055600160096000838152602001908152602001600020600085815260200190815260200160002060006101000a81548160ff0219169083151502179055505b7f2795bdb5ac2fd3280cc8b22977ab194a8544252b5dbdd2334830c5448deb5c25848433604051611fee93929190614de9565b60405180910390a150505050565b612007848484610db5565b61201384848484612fec565b50505050565b600a6020528060005260406000206000915090508060000160009054906101000a900473ffffffffffffffffffffffffffffffffffffffff16908060010154908060020154908060030154908060060154908060070160009054906101000a900460ff16905086565b80600660006101000a81548173ffffffffffffffffffffffffffffffffffffffff021916908373ffffffffffffffffffffffffffffffffffffffff16021790555050565b60606120d182612b84565b5060006120dc6131a3565b905060008151116120fc5760405180602001604052806000815250612127565b80612106846131ba565b60405160200161211792919061537d565b6040516020818303038152906040525b915050919050565b6000600a600084815260200190815260200160002090503373ffffffffffffffffffffffffffffffffffffffff168160000160009054906101000a900473ffffffffffffffffffffffffffffffffffffffff1673ffffffffffffffffffffffffffffffffffffffff16146121d8576040517f08c379a00000000000000000000000000000000000000000000000000000000081526004016121cf90615413565b60405180910390fd5b80600401805490508210612221576040517f08c379a00000000000000000000000000000000000000000000000000000000081526004016122189061547f565b60405180910390fd5b8060070160009054906101000a900460ff1615612273576040517f08c379a000000000000000000000000000000000000000000000000000000000815260040161226a906154eb565b60405180910390fd5b8181600601819055507fcf70e0c5961c2dc2269c0e04e3ca7f59750769e35d1a8318486a291d5fb88c8483836040516122ad92919061550b565b60405180910390a1505050565b600e5481565b6000600a60008581526020019081526020016000209050600073ffffffffffffffffffffffffffffffffffffffff168160000160009054906101000a900473ffffffffffffffffffffffffffffffffffffffff1673ffffffffffffffffffffffffffffffffffffffff160361236a576040517f08c379a000000000000000000000000000000000000000000000000000000000815260040161236190615580565b60405180910390fd5b8060070160009054906101000a900460ff16156123bc576040517f08c379a00000000000000000000000000000000000000000000000000000000081526004016123b3906154eb565b60405180910390fd5b80600201544210612402576040517f08c379a00000000000000000000000000000000000000000000000000000000081526004016123f9906155ec565b60405180910390fd5b8060040180549050821061244b576040517f08c379a00000000000000000000000000000000000000000000000000000000081526004016124429061547f565b60405180910390fd5b6000831161248e576040517f08c379a00000000000000000000000000000000000000000000000000000000081526004016124859061567e565b60405180910390fd5b6000600660009054906101000a900473ffffffffffffffffffffffffffffffffffffffff1673ffffffffffffffffffffffffffffffffffffffff166323b872dd3330876040518463ffffffff1660e01b81526004016124ef93929190614fc1565b6020604051808303816000875af115801561250e573d6000803e3d6000fd5b505050506040513d601f19601f820116820180604052508101906125329190614dbc565b905080612574576040517f08c379a000000000000000000000000000000000000000000000000000000000815260040161256b90615710565b60405180910390fd5b6000600e5490506125853382613288565b6040518060c001604052803373ffffffffffffffffffffffffffffffffffffffff16815260200142815260200187815260200186815260200185815260200160001515815250600b6000600e54815260200190815260200160002060008201518160000160006101000a81548173ffffffffffffffffffffffffffffffffffffffff021916908373ffffffffffffffffffffffffffffffffffffffff1602179055506020820151816001015560408201518160020155606082015181600301556080820151816004015560a08201518160050160006101000a81548160ff02191690831515021790555090505082600501600e5490806001815401808255809150506001900390600052602060002001600090919091909150557fcab2b69c9bd52c70281e758caba2ed7bf9140474a8c3e81ceafa1eb0b303a22b600e5486336040516126d493929190614de9565b60405180910390a1600e60008154809291906126ef90614cd6565b9190505550505050505050565b6000600560008473ffffffffffffffffffffffffffffffffffffffff1673ffffffffffffffffffffffffffffffffffffffff16815260200190815260200160002060008373ffffffffffffffffffffffffffffffffffffffff1673ffffffffffffffffffffffffffffffffffffffff16815260200190815260200160002060009054906101000a900460ff16905092915050565b6000600c60008381526020019081526020016000209050600073ffffffffffffffffffffffffffffffffffffffff168160030160009054906101000a900473ffffffffffffffffffffffffffffffffffffffff1673ffffffffffffffffffffffffffffffffffffffff160361283a576040517f08c379a000000000000000000000000000000000000000000000000000000000815260040161283190615122565b60405180910390fd5b60008160030160009054906101000a900473ffffffffffffffffffffffffffffffffffffffff169050600082600201549050600660009054906101000a900473ffffffffffffffffffffffffffffffffffffffff1673ffffffffffffffffffffffffffffffffffffffff1663095ea7b330836040518363ffffffff1660e01b81526004016128c9929190614d7e565b6020604051808303816000875af11580156128e8573d6000803e3d6000fd5b505050506040513d601f19601f8201168201806040525081019061290c9190614dbc565b50600660009054906101000a900473ffffffffffffffffffffffffffffffffffffffff1673ffffffffffffffffffffffffffffffffffffffff166323b872dd3384846040518463ffffffff1660e01b815260040161296c93929190614fc1565b6020604051808303816000875af115801561298b573d6000803e3d6000fd5b505050506040513d601f19601f820116820180604052508101906129af9190614dbc565b506129df8360030160009054906101000a900473ffffffffffffffffffffffffffffffffffffffff1633866132a6565b6000600b600086815260200190815260200160002060050160006101000a81548160ff02191690831515021790555033600b600086815260200190815260200160002060000160006101000a81548173ffffffffffffffffffffffffffffffffffffffff021916908373ffffffffffffffffffffffffffffffffffffffff160217905550612a84600b6000868152602001908152602001600020600201548286613413565b600c6000858152602001908152602001600020600080820160009055600182016000905560028201600090556003820160006101000a81549073ffffffffffffffffffffffffffffffffffffffff021916905550507fc473ca3b88f02bf7fc1684f3df4caef261acacf64f3eeb502e8c1b42404b9dbd848233604051612b0c93929190614de9565b60405180910390a150505050565b60007f01ffc9a7000000000000000000000000000000000000000000000000000000007bffffffffffffffffffffffffffffffffffffffffffffffffffffffff1916827bffffffffffffffffffffffffffffffffffffffffffffffffffffffff1916149050919050565b600080612b9083613694565b9050600073ffffffffffffffffffffffffffffffffffffffff168173ffffffffffffffffffffffffffffffffffffffff1603612c0357826040517f7e273289000000000000000000000000000000000000000000000000000000008152600401612bfa9190614260565b60405180910390fd5b80915050919050565b60006004600083815260200190815260200160002060009054906101000a900473ffffffffffffffffffffffffffffffffffffffff169050919050565b600033905090565b612c5e83838360016136d1565b505050565b600080612c6f84613694565b9050600073ffffffffffffffffffffffffffffffffffffffff168373ffffffffffffffffffffffffffffffffffffffff1614612cb157612cb0818486613896565b5b600073ffffffffffffffffffffffffffffffffffffffff168173ffffffffffffffffffffffffffffffffffffffff1614612d4257612cf36000856000806136d1565b6001600360008373ffffffffffffffffffffffffffffffffffffffff1673ffffffffffffffffffffffffffffffffffffffff168152602001908152602001600020600082825403925050819055505b600073ffffffffffffffffffffffffffffffffffffffff168573ffffffffffffffffffffffffffffffffffffffff1614612dc5576001600360008773ffffffffffffffffffffffffffffffffffffffff1673ffffffffffffffffffffffffffffffffffffffff168152602001908152602001600020600082825401925050819055505b846002600086815260200190815260200160002060006101000a81548173ffffffffffffffffffffffffffffffffffffffff021916908373ffffffffffffffffffffffffffffffffffffffff160217905550838573ffffffffffffffffffffffffffffffffffffffff168273ffffffffffffffffffffffffffffffffffffffff167fddf252ad1be2c89b69c2b068fc378daa952ba7f163c4a11628f55a4df523b3ef60405160405180910390a4809150509392505050565b600073ffffffffffffffffffffffffffffffffffffffff168273ffffffffffffffffffffffffffffffffffffffff1603612eee57816040517f5b08ba18000000000000000000000000000000000000000000000000000000008152600401612ee59190614116565b60405180910390fd5b80600560008573ffffffffffffffffffffffffffffffffffffffff1673ffffffffffffffffffffffffffffffffffffffff16815260200190815260200160002060008473ffffffffffffffffffffffffffffffffffffffff1673ffffffffffffffffffffffffffffffffffffffff16815260200190815260200160002060006101000a81548160ff0219169083151502179055508173ffffffffffffffffffffffffffffffffffffffff168373ffffffffffffffffffffffffffffffffffffffff167f17307eab39ab6107e8899845ad3d59bd9653f200f220920489ca2b5937696c3183604051612fdf9190613fa5565b60405180910390a3505050565b60008373ffffffffffffffffffffffffffffffffffffffff163b111561319d578273ffffffffffffffffffffffffffffffffffffffff1663150b7a02613030612c49565b8685856040518563ffffffff1660e01b81526004016130529493929190615785565b6020604051808303816000875af192505050801561308e57506040513d601f19601f8201168201806040525081019061308b91906157e6565b60015b613112573d80600081146130be576040519150601f19603f3d011682016040523d82523d6000602084013e6130c3565b606091505b50600081510361310a57836040517f64a0ae920000000000000000000000000000000000000000000000000000000081526004016131019190614116565b60405180910390fd5b805181602001fd5b63150b7a0260e01b7bffffffffffffffffffffffffffffffffffffffffffffffffffffffff1916817bffffffffffffffffffffffffffffffffffffffffffffffffffffffff19161461319b57836040517f64a0ae920000000000000000000000000000000000000000000000000000000081526004016131929190614116565b60405180910390fd5b505b50505050565b606060405180602001604052806000815250905090565b6060600060016131c98461395a565b01905060008167ffffffffffffffff8111156131e8576131e7614280565b5b6040519080825280601f01601f19166020018201604052801561321a5781602001600182028036833780820191505090505b509050600082602001820190505b60011561327d578080600190039150507f3031323334353637383961626364656600000000000000000000000000000000600a86061a8153600a858161327157613270614d1e565b5b04945060008503613228575b819350505050919050565b6132a2828260405180602001604052806000815250613aad565b5050565b600073ffffffffffffffffffffffffffffffffffffffff168273ffffffffffffffffffffffffffffffffffffffff16036133185760006040517f64a0ae9200000000000000000000000000000000000000000000000000000000815260040161330f9190614116565b60405180910390fd5b600061332683836000612c63565b9050600073ffffffffffffffffffffffffffffffffffffffff168173ffffffffffffffffffffffffffffffffffffffff160361339957816040517f7e2732890000000000000000000000000000000000000000000000000000000081526004016133909190614260565b60405180910390fd5b8373ffffffffffffffffffffffffffffffffffffffff168173ffffffffffffffffffffffffffffffffffffffff161461340d578382826040517f64283d7b00000000000000000000000000000000000000000000000000000000815260040161340493929190614e20565b60405180910390fd5b50505050565b6000600760008581526020019081526020016000206000848152602001908152602001600020905060007fffffffffffffffffffffffffffffffffffffffffffffffffffffffffffffffff905060005b82805490508110156134b5578383828154811061348357613482614c78565b5b906000526020600020906004020160000154036134a2578091506134b5565b80806134ad90614cd6565b915050613463565b507fffffffffffffffffffffffffffffffffffffffffffffffffffffffffffffffff811461368d57600182805490506134ee9190615813565b81146135cf5781600183805490506135069190615813565b8154811061351757613516614c78565b5b906000526020600020906004020182828154811061353857613537614c78565b5b90600052602060002090600402016000820154816000015560018201548160010155600282015481600201556003820160009054906101000a900473ffffffffffffffffffffffffffffffffffffffff168160030160006101000a81548173ffffffffffffffffffffffffffffffffffffffff021916908373ffffffffffffffffffffffffffffffffffffffff1602179055509050505b818054806135e0576135df615847565b5b6001900381819060005260206000209060040201600080820160009055600182016000905560028201600090556003820160006101000a81549073ffffffffffffffffffffffffffffffffffffffff021916905550509055600082805490500361368c57600060096000878152602001908152602001600020600086815260200190815260200160002060006101000a81548160ff02191690831515021790555061368b8585613ac9565b5b5b5050505050565b60006002600083815260200190815260200160002060009054906101000a900473ffffffffffffffffffffffffffffffffffffffff169050919050565b808061370a5750600073ffffffffffffffffffffffffffffffffffffffff168273ffffffffffffffffffffffffffffffffffffffff1614155b1561383e57600061371a84612b84565b9050600073ffffffffffffffffffffffffffffffffffffffff168373ffffffffffffffffffffffffffffffffffffffff161415801561378557508273ffffffffffffffffffffffffffffffffffffffff168173ffffffffffffffffffffffffffffffffffffffff1614155b8015613798575061379681846126fc565b155b156137da57826040517fa9fbf51f0000000000000000000000000000000000000000000000000000000081526004016137d19190614116565b60405180910390fd5b811561383c57838573ffffffffffffffffffffffffffffffffffffffff168273ffffffffffffffffffffffffffffffffffffffff167f8c5be1e5ebec7d5bd14f71427d1e84f3dd0314c0f7b2291e5b200ac8c7c3b92560405160405180910390a45b505b836004600085815260200190815260200160002060006101000a81548173ffffffffffffffffffffffffffffffffffffffff021916908373ffffffffffffffffffffffffffffffffffffffff16021790555050505050565b6138a1838383613c10565b61395557600073ffffffffffffffffffffffffffffffffffffffff168373ffffffffffffffffffffffffffffffffffffffff160361391657806040517f7e27328900000000000000000000000000000000000000000000000000000000815260040161390d9190614260565b60405180910390fd5b81816040517f177e802f00000000000000000000000000000000000000000000000000000000815260040161394c929190614d7e565b60405180910390fd5b505050565b600080600090507a184f03e93ff9f4daa797ed6e38ed64bf6a1f01000000000000000083106139b8577a184f03e93ff9f4daa797ed6e38ed64bf6a1f01000000000000000083816139ae576139ad614d1e565b5b0492506040810190505b6d04ee2d6d415b85acef810000000083106139f5576d04ee2d6d415b85acef810000000083816139eb576139ea614d1e565b5b0492506020810190505b662386f26fc100008310613a2457662386f26fc100008381613a1a57613a19614d1e565b5b0492506010810190505b6305f5e1008310613a4d576305f5e1008381613a4357613a42614d1e565b5b0492506008810190505b6127108310613a72576127108381613a6857613a67614d1e565b5b0492506004810190505b60648310613a955760648381613a8b57613a8a614d1e565b5b0492506002810190505b600a8310613aa4576001810190505b80915050919050565b613ab78383613cd1565b613ac46000848484612fec565b505050565b600060086000848152602001908152602001600020905060007fffffffffffffffffffffffffffffffffffffffffffffffffffffffffffffffff905060005b8280549050811015613b535783838281548110613b2857613b27614c78565b5b906000526020600020015403613b4057809150613b53565b8080613b4b90614cd6565b915050613b08565b507fffffffffffffffffffffffffffffffffffffffffffffffffffffffffffffffff8114613c0a5760018280549050613b8c9190615813565b8114613be2578160018380549050613ba49190615813565b81548110613bb557613bb4614c78565b5b9060005260206000200154828281548110613bd357613bd2614c78565b5b90600052602060002001819055505b81805480613bf357613bf2615847565b5b600190038181906000526020600020016000905590555b50505050565b60008073ffffffffffffffffffffffffffffffffffffffff168373ffffffffffffffffffffffffffffffffffffffff1614158015613cc857508273ffffffffffffffffffffffffffffffffffffffff168473ffffffffffffffffffffffffffffffffffffffff161480613c895750613c8884846126fc565b5b80613cc757508273ffffffffffffffffffffffffffffffffffffffff16613caf83612c0c565b73ffffffffffffffffffffffffffffffffffffffff16145b5b90509392505050565b600073ffffffffffffffffffffffffffffffffffffffff168273ffffffffffffffffffffffffffffffffffffffff1603613d435760006040517f64a0ae92000000000000000000000000000000000000000000000000000000008152600401613d3a9190614116565b60405180910390fd5b6000613d5183836000612c63565b9050600073ffffffffffffffffffffffffffffffffffffffff168173ffffffffffffffffffffffffffffffffffffffff1614613dc55760006040517f73c6ac6e000000000000000000000000000000000000000000000000000000008152600401613dbc9190614116565b60405180910390fd5b505050565b828054828255906000526020600020908101928215613e12579160200282015b82811115613e11578251829081613e019190615a18565b5091602001919060010190613dea565b5b509050613e1f9190613e70565b5090565b828054828255906000526020600020908101928215613e5f579160200282015b82811115613e5e578251825591602001919060010190613e43565b5b509050613e6c9190613e94565b5090565b5b80821115613e905760008181613e879190613eb1565b50600101613e71565b5090565b5b80821115613ead576000816000905550600101613e95565b5090565b508054613ebd90614add565b6000825580601f10613ecf5750613eee565b601f016020900490600052602060002090810190613eed9190613e94565b5b50565b6000604051905090565b600080fd5b600080fd5b60007fffffffff0000000000000000000000000000000000000000000000000000000082169050919050565b613f3a81613f05565b8114613f4557600080fd5b50565b600081359050613f5781613f31565b92915050565b600060208284031215613f7357613f72613efb565b5b6000613f8184828501613f48565b91505092915050565b60008115159050919050565b613f9f81613f8a565b82525050565b6000602082019050613fba6000830184613f96565b92915050565b600081519050919050565b600082825260208201905092915050565b60005b83811015613ffa578082015181840152602081019050613fdf565b60008484015250505050565b6000601f19601f8301169050919050565b600061402282613fc0565b61402c8185613fcb565b935061403c818560208601613fdc565b61404581614006565b840191505092915050565b6000602082019050818103600083015261406a8184614017565b905092915050565b6000819050919050565b61408581614072565b811461409057600080fd5b50565b6000813590506140a28161407c565b92915050565b6000602082840312156140be576140bd613efb565b5b60006140cc84828501614093565b91505092915050565b600073ffffffffffffffffffffffffffffffffffffffff82169050919050565b6000614100826140d5565b9050919050565b614110816140f5565b82525050565b600060208201905061412b6000830184614107565b92915050565b61413a816140f5565b811461414557600080fd5b50565b60008135905061415781614131565b92915050565b6000806040838503121561417457614173613efb565b5b600061418285828601614148565b925050602061419385828601614093565b9150509250929050565b6141a681614072565b82525050565b600060c0820190506141c16000830189614107565b6141ce602083018861419d565b6141db604083018761419d565b6141e8606083018661419d565b6141f5608083018561419d565b61420260a0830184613f96565b979650505050505050565b60008060006060848603121561422657614225613efb565b5b600061423486828701614148565b935050602061424586828701614148565b925050604061425686828701614093565b9150509250925092565b6000602082019050614275600083018461419d565b92915050565b600080fd5b7f4e487b7100000000000000000000000000000000000000000000000000000000600052604160045260246000fd5b6142b882614006565b810181811067ffffffffffffffff821117156142d7576142d6614280565b5b80604052505050565b60006142ea613ef1565b90506142f682826142af565b919050565b600067ffffffffffffffff82111561431657614315614280565b5b602082029050602081019050919050565b600080fd5b600080fd5b600067ffffffffffffffff82111561434c5761434b614280565b5b61435582614006565b9050602081019050919050565b82818337600083830152505050565b600061438461437f84614331565b6142e0565b9050828152602081018484840111156143a05761439f61432c565b5b6143ab848285614362565b509392505050565b600082601f8301126143c8576143c761427b565b5b81356143d8848260208601614371565b91505092915050565b60006143f46143ef846142fb565b6142e0565b9050808382526020820190506020840283018581111561441757614416614327565b5b835b8181101561445e57803567ffffffffffffffff81111561443c5761443b61427b565b5b80860161444989826143b3565b85526020850194505050602081019050614419565b5050509392505050565b600082601f83011261447d5761447c61427b565b5b813561448d8482602086016143e1565b91505092915050565b6000806000606084860312156144af576144ae613efb565b5b600084013567ffffffffffffffff8111156144cd576144cc613f00565b5b6144d986828701614468565b93505060206144ea86828701614093565b92505060406144fb86828701614093565b9150509250925092565b600081519050919050565b600082825260208201905092915050565b6000819050602082019050919050565b61453a81614072565b82525050565b600061454c8383614531565b60208301905092915050565b6000602082019050919050565b600061457082614505565b61457a8185614510565b935061458583614521565b8060005b838110156145b657815161459d8882614540565b97506145a883614558565b925050600181019050614589565b5085935050505092915050565b600060208201905081810360008301526145dd8184614565565b905092915050565b60006080820190506145fa600083018761419d565b614607602083018661419d565b614614604083018561419d565b6146216060830184614107565b95945050505050565b600081519050919050565b600082825260208201905092915050565b6000819050602082019050919050565b600082825260208201905092915050565b600061467282613fc0565b61467c8185614656565b935061468c818560208601613fdc565b61469581614006565b840191505092915050565b60006146ac8383614667565b905092915050565b6000602082019050919050565b60006146cc8261462a565b6146d68185614635565b9350836020820285016146e885614646565b8060005b85811015614724578484038952815161470585826146a0565b9450614710836146b4565b925060208a019950506001810190506146ec565b50829750879550505050505092915050565b6000602082019050818103600083015261475081846146c1565b905092915050565b60006020828403121561476e5761476d613efb565b5b600061477c84828501614148565b91505092915050565b6000819050919050565b60006147aa6147a56147a0846140d5565b614785565b6140d5565b9050919050565b60006147bc8261478f565b9050919050565b60006147ce826147b1565b9050919050565b6147de816147c3565b82525050565b60006020820190506147f960008301846147d5565b92915050565b600060608201905081810360008301526148198186614565565b9050818103602083015261482d8185614565565b905081810360408301526148418184614565565b9050949350505050565b6000806040838503121561486257614861613efb565b5b600061487085828601614093565b925050602061488185828601614093565b9150509250929050565b6000806000606084860312156148a4576148a3613efb565b5b60006148b286828701614093565b93505060206148c386828701614093565b92505060406148d486828701614093565b9150509250925092565b6148e781613f8a565b81146148f257600080fd5b50565b600081359050614904816148de565b92915050565b6000806040838503121561492157614920613efb565b5b600061492f85828601614148565b9250506020614940858286016148f5565b9150509250929050565b600067ffffffffffffffff82111561496557614964614280565b5b61496e82614006565b9050602081019050919050565b600061498e6149898461494a565b6142e0565b9050828152602081018484840111156149aa576149a961432c565b5b6149b5848285614362565b509392505050565b600082601f8301126149d2576149d161427b565b5b81356149e284826020860161497b565b91505092915050565b60008060008060808587031215614a0557614a04613efb565b5b6000614a1387828801614148565b9450506020614a2487828801614148565b9350506040614a3587828801614093565b925050606085013567ffffffffffffffff811115614a5657614a55613f00565b5b614a62878288016149bd565b91505092959194509250565b60008060408385031215614a8557614a84613efb565b5b6000614a9385828601614148565b9250506020614aa485828601614148565b9150509250929050565b7f4e487b7100000000000000000000000000000000000000000000000000000000600052602260045260246000fd5b60006002820490506001821680614af557607f821691505b602082108103614b0857614b07614aae565b5b50919050565b7f4f6e6c7920746865206f776e65722063616e2066696e6973682074686520676160008201527f6d626c6500000000000000000000000000000000000000000000000000000000602082015250565b6000614b6a602483613fcb565b9150614b7582614b0e565b604082019050919050565b60006020820190508181036000830152614b9981614b5d565b9050919050565b7f57696e6e696e672063686f696365206e6f74206465636c617265640000000000600082015250565b6000614bd6601b83613fcb565b9150614be182614ba0565b602082019050919050565b60006020820190508181036000830152614c0581614bc9565b9050919050565b7f47616d626c652069732066696e69736865640000000000000000000000000000600082015250565b6000614c42601283613fcb565b9150614c4d82614c0c565b602082019050919050565b60006020820190508181036000830152614c7181614c35565b9050919050565b7f4e487b7100000000000000000000000000000000000000000000000000000000600052603260045260246000fd5b7f4e487b7100000000000000000000000000000000000000000000000000000000600052601160045260246000fd5b6000614ce182614072565b91507fffffffffffffffffffffffffffffffffffffffffffffffffffffffffffffffff8203614d1357614d12614ca7565b5b600182019050919050565b7f4e487b7100000000000000000000000000000000000000000000000000000000600052601260045260246000fd5b6000614d5882614072565b9150614d6383614072565b925082614d7357614d72614d1e565b5b828204905092915050565b6000604082019050614d936000830185614107565b614da0602083018461419d565b9392505050565b600081519050614db6816148de565b92915050565b600060208284031215614dd257614dd1613efb565b5b6000614de084828501614da7565b91505092915050565b6000606082019050614dfe600083018661419d565b614e0b602083018561419d565b614e186040830184614107565b949350505050565b6000606082019050614e356000830186614107565b614e42602083018561419d565b614e4f6040830184614107565b949350505050565b7f4174206c656173742074776f2063686f69636573207265717569726564000000600082015250565b6000614e8d601d83613fcb565b9150614e9882614e57565b602082019050919050565b60006020820190508181036000830152614ebc81614e80565b9050919050565b7f546f74616c207072697a65206d7573742062652067726561746572207468616e60008201527f207a65726f000000000000000000000000000000000000000000000000000000602082015250565b6000614f1f602583613fcb565b9150614f2a82614ec3565b604082019050919050565b60006020820190508181036000830152614f4e81614f12565b9050919050565b7f446561646c696e65206d75737420626520696e20746865206675747572650000600082015250565b6000614f8b601e83613fcb565b9150614f9682614f55565b602082019050919050565b60006020820190508181036000830152614fba81614f7e565b9050919050565b6000606082019050614fd66000830186614107565b614fe36020830185614107565b614ff0604083018461419d565b949350505050565b7f4661696c656420746f207472616e73666572207072697a652066756e64730000600082015250565b600061502e601e83613fcb565b915061503982614ff8565b602082019050919050565b6000602082019050818103600083015261505d81615021565b9050919050565b6000606082019050615079600083018661419d565b818103602083015261508b81856146c1565b905061509a6040830184614107565b949350505050565b60006150ad82614072565b91506150b883614072565b92508282019050808211156150d0576150cf614ca7565b5b92915050565b7f426574206973206e6f74206c697374656420666f722073616c65000000000000600082015250565b600061510c601a83613fcb565b9150615117826150d6565b602082019050919050565b6000602082019050818103600083015261513b816150ff565b9050919050565b7f4f6e6c7920746865206f776e65722063616e2063616e63656c20746865206c6960008201527f7374696e67000000000000000000000000000000000000000000000000000000602082015250565b600061519e602583613fcb565b91506151a982615142565b604082019050919050565b600060208201905081810360008301526151cd81615191565b9050919050565b60006040820190506151e9600083018561419d565b6151f66020830184614107565b9392505050565b7f546f6b656e20646f6573206e6f74206578697374000000000000000000000000600082015250565b6000615233601483613fcb565b915061523e826151fd565b602082019050919050565b6000602082019050818103600083015261526281615226565b9050919050565b7f4f6e6c7920746865206f776e65722063616e206c697374207468652062657400600082015250565b600061529f601f83613fcb565b91506152aa82615269565b602082019050919050565b600060208201905081810360008301526152ce81615292565b9050919050565b7f5072696365206d7573742062652067726561746572207468616e207a65726f00600082015250565b600061530b601f83613fcb565b9150615316826152d5565b602082019050919050565b6000602082019050818103600083015261533a816152fe565b9050919050565b600081905092915050565b600061535782613fc0565b6153618185615341565b9350615371818560208601613fdc565b80840191505092915050565b6000615389828561534c565b9150615395828461534c565b91508190509392505050565b7f4f6e6c7920746865206f776e65722063616e206465636c61726520612072657360008201527f756c740000000000000000000000000000000000000000000000000000000000602082015250565b60006153fd602383613fcb565b9150615408826153a1565b604082019050919050565b6000602082019050818103600083015261542c816153f0565b9050919050565b7f496e76616c69642063686f696365000000000000000000000000000000000000600082015250565b6000615469600e83613fcb565b915061547482615433565b602082019050919050565b600060208201905081810360008301526154988161545c565b9050919050565b7f47616d626c652068617320616c72656164792066696e69736865640000000000600082015250565b60006154d5601b83613fcb565b91506154e08261549f565b602082019050919050565b60006020820190508181036000830152615504816154c8565b9050919050565b6000604082019050615520600083018561419d565b61552d602083018461419d565b9392505050565b7f47616d626c6520646f6573206e6f742065786973740000000000000000000000600082015250565b600061556a601583613fcb565b915061557582615534565b602082019050919050565b600060208201905081810360008301526155998161555d565b9050919050565b7f47616d626c65206973206f766572000000000000000000000000000000000000600082015250565b60006155d6600e83613fcb565b91506155e1826155a0565b602082019050919050565b60006020820190508181036000830152615605816155c9565b9050919050565b7f426574207072696365206d7573742062652067726561746572207468616e207a60008201527f65726f0000000000000000000000000000000000000000000000000000000000602082015250565b6000615668602383613fcb565b91506156738261560c565b604082019050919050565b600060208201905081810360008301526156978161565b565b9050919050565b7f5472616e73666572206661696c65643a20696e73756666696369656e7420616c60008201527f6c6f77616e6365206f722062616c616e63650000000000000000000000000000602082015250565b60006156fa603283613fcb565b91506157058261569e565b604082019050919050565b60006020820190508181036000830152615729816156ed565b9050919050565b600081519050919050565b600082825260208201905092915050565b600061575782615730565b615761818561573b565b9350615771818560208601613fdc565b61577a81614006565b840191505092915050565b600060808201905061579a6000830187614107565b6157a76020830186614107565b6157b4604083018561419d565b81810360608301526157c6818461574c565b905095945050505050565b6000815190506157e081613f31565b92915050565b6000602082840312156157fc576157fb613efb565b5b600061580a848285016157d1565b91505092915050565b600061581e82614072565b915061582983614072565b925082820390508181111561584157615840614ca7565b5b92915050565b7f4e487b7100000000000000000000000000000000000000000000000000000000600052603160045260246000fd5b60008190508160005260206000209050919050565b60006020601f8301049050919050565b600082821b905092915050565b6000600883026158d87fffffffffffffffffffffffffffffffffffffffffffffffffffffffffffffffff8261589b565b6158e2868361589b565b95508019841693508086168417925050509392505050565b600061591561591061590b84614072565b614785565b614072565b9050919050565b6000819050919050565b61592f836158fa565b61594361593b8261591c565b8484546158a8565b825550505050565b600090565b61595861594b565b615963818484615926565b505050565b5b818110156159875761597c600082615950565b600181019050615969565b5050565b601f8211156159cc5761599d81615876565b6159a68461588b565b810160208510156159b5578190505b6159c96159c18561588b565b830182615968565b50505b505050565b600082821c905092915050565b60006159ef600019846008026159d1565b1980831691505092915050565b6000615a0883836159de565b9150826002028217905092915050565b615a2182613fc0565b67ffffffffffffffff811115615a3a57615a39614280565b5b615a448254614add565b615a4f82828561598b565b600060209050601f831160018114615a825760008415615a70578287015190505b615a7a85826159fc565b865550615ae2565b601f198416615a9086615876565b60005b82811015615ab857848901518255600182019150602085019450602081019050615a93565b86831015615ad55784890151615ad1601f8916826159de565b8355505b6001600288020188555050505b50505050505056fea2646970667358221220531ab4ba21bfdfb49de4797371dd8fb69dd32ed78b0aa301edb1cda83f6c925864736f6c63430008140033",
  "linkReferences": {},
  "deployedLinkReferences": {}
}